:100000000C94D6000C9407010C9407010C94070182
:100010000C9407010C9407010C9407010C94070140
:100020000C9407010C9407010C9407010C94070130
:100030000C9407010C9407010C9407010C94070120
:100040000C9407010C9407010C9407010C94070110
:100050000C9407010C9407010C9407010C94CC1824
:100060000C9407010C9433100C9409100C940701A4
:100070000C9407010C9407010C9407010C940701E0
:100080000C9407010C9407010C9407010C940701D0
:100090000C9407010C9407010C9407010C940701C0
:1000A0000C9407010C9407010C9407010C940701B0
:1000B0000C9407010C9407010C9407010C940701A0
:1000C0000C9407010C9407010C9407010C94070190
:1000D0000C9407010C9407010C9407010C94070180
:1000E0000C9407019B1CD01CDC1CE51C6D1C6D1CBA
:1000F000F91C031D6D1C6D1C6D1C6D1C171D271D2F
:100100006D1C6D1C6D1C6D1C331D6D1C6D1C6D1CE0
:10011000471D0C94A0060C94CF0F0C949B1C0C94C0
:10012000F0080C9416190C94331D0C947C030C9459
:100130000F010C94860D0C9426060C94FB190C945C
:10014000A7060C9469100C94291E0C94DC1C0C94CA
:100150003B0B0C94471D0C948C100C9407100C94C2
:1001600004110C9447190C94E51C0C94D01C0C94AD
:10017000E3050C94F91C0C94171D0C9409010C94C4
:1001800015010C943D0B0C94031D0C94390B0C942D
:1001900039190C94A3060C9425190C94271D0C9462
:1001A000A5060C946D1C0C94AE19291E11241FBEBB
:1001B000CFEFD1E2DEBFCDBF00E00CBF24E1A0ED68
:1001C000B2E001C01D92AA3FB207E1F712E0A0E041
:1001D000B2E0E6EEFEE300E00BBF02C007900D9236
:1001E000A03DB107D9F710E0C6EDD0E000E006C0B1
:1001F00021970109802FFE010E94491FC53DD107AB
:1002000080E00807A9F70E94751A0C94711F0C94DE
:100210000000E1E0F1E08081886080830895E1E002
:10022000F1E080818061808308956F927F928F9248
:100230009F92AF92BF92CF92DF92EF92FF920F9375
:100240001F93CF93DF93EB010F963C010E94661A38
:10025000F894E881F98150910201586040910201BF
:10026000477F40930201EA848F812E2D281B822F25
:100270002F83DF84AA81BB816D857C85FE846F5FBF
:100280007F5FF3949E813885B984AB84118120E02F
:10029000C32E022F322F3181112788943111380F4C
:1002A00008F43FEF8195889460FD130F17958894AB
:1002B00061FD130F1795889462FD130F17958894AD
:1002C00063FD130F1795889464FD130F1795889499
:1002D00065FD130F1795889466FD130F1795889485
:1002E00067FD130F17958894232F6111212F8E0D11
:1002F000122F002C50930201002C17FF4093020193
:1003000030812227889400C000C04093020131113F
:10031000390F00C050930201002C16FF40930201D8
:1003200008F43FEF9195889400C000C0409302010B
:1003300070FD230F00C050930201002C15FF409365
:1003400002012795889471FD230F00C000C04093DF
:1003500002012795889400C050930201002C14FFDD
:100360004093020172FD230F2795889400C000C0BE
:100370004093020173FD230F00C050930201002C33
:1003800013FF409302012795889474FD230F00C04A
:1003900000C0409302012795889400C05093020149
:1003A000002C12FF4093020175FD230F27958894BE
:1003B00000C000C04093020176FD230F00C050939F
:1003C0000201002C11FF409302012795889477FDCC
:1003D000230F00C000C0409302012795889400C0FD
:1003E00050930201002C10FF40930201132F711152
:1003F000122F9B0D00C000C04093020100C000C03E
:1004000050930201002C17FF4093020132812227F2
:10041000889400C000C04093020131113C0D00C01F
:1004200050930201002C16FF4093020108F43FEFA5
:10043000ED0DF11D00C000C040930201F0FC230F40
:1004400000C050930201002C15FF40930201279534
:100450008894F1FC230F00C000C04093020127954F
:10046000889400C050930201002C14FF40930201B5
:10047000F2FC230F2795889400C000C0409302012E
:10048000F3FC230F00C050930201002C13FF409394
:10049000020127958894F4FC230F00C000C040930C
:1004A00002012795889400C050930201002C12FF8E
:1004B00040930201F5FC230F2795889400C000C0EB
:1004C00040930201F6FC230F00C050930201002C60
:1004D00011FF4093020127958894F7FC230F00C079
:1004E00000C0409302012795889400C050930201F8
:1004F000002C10FF40930201132FF110122FC19412
:1005000000C000C040930201CA0C00C0002C5093F0
:100510000201002C17FF40930201318122278894A9
:1005200000C000C0409302013111380F00C0509349
:100530000201002C16FF4093020108F43FEF819561
:10054000889400C000C04093020160FD230F00C0EA
:1005500050930201002C15FF4093020127958894C7
:1005600061FD230F00C000C04093020127958894CD
:1005700000C050930201002C14FF4093020162FD61
:10058000230F2795889400C000C04093020163FDAB
:10059000230F00C050930201002C13FF409302016F
:1005A0002795889464FD230F00C000C0409302018A
:1005B0002795889400C050930201002C12FF4093AD
:1005C000020165FD230F2795889400C000C0409369
:1005D000020166FD230F00C050930201002C11FFA1
:1005E000409302012795889467FD230F00C000C047
:1005F000409302012795889400C050930201002C7B
:1006000010FF40930201132F6111122F8E0D00C0B5
:1006100000C040930201119709F06CCE4A815B81C2
:1006200020EE31E0DA010E94511FDC01CB01F4E041
:10063000B695A79597958795FA95D1F720E030E084
:10064000B901EAE94E9F040E611D5E9F600D711DA8
:100650001124650F711D860F971FA11DB11D893EC5
:1006600043E09407A105B10508F434C0885E9340C7
:10067000A109B10942E0B695A795979587954A9546
:10068000D1F747E0849F080E211D949F200D311D56
:100690001124290F311D6091D00270E0860F971F41
:1006A000820F931F409181035091820360918303D5
:1006B00070918403292F3327420F531F611D711D31
:1006C0004093810350938203609383037093840368
:1006D0008093D0027894C301DF91CF911F910F9145
:1006E000FF90EF90DF90CF90BF90AF909F908F9052
:1006F0007F906F900C945C1A6F927F928F929F9272
:10070000AF92BF92CF92DF92EF92FF920F931F931F
:10071000CF93DF93EB010F963C010E94661AF89489
:10072000E881F981509102015061409102014F7EB0
:1007300040930201EA848F812E2D281B822F2F8364
:10074000DF84AA81BB816D857C85FE846F5F7F5FBE
:10075000F3949E813885B984AB84118120E0C32E47
:10076000022F322F3181112788943111380F08F46C
:100770003FEF8195889460FD130F1795889461FD74
:10078000130F1795889462FD130F1795889463FDD6
:10079000130F1795889464FD130F1795889465FDC2
:1007A000130F1795889466FD130F1795889467FDAE
:1007B000130F17958894232F6111212F8E0D122F5F
:1007C000002C50930201002C17FF4093020130814E
:1007D0002227889400C000C0409302013111390FD4
:1007E00000C050930201002C16FF4093020108F450
:1007F0003FEF9195889400C000C04093020170FDC6
:10080000230F00C050930201002C15FF40930201FA
:100810002795889471FD230F00C000C0409302010A
:100820002795889400C050930201002C14FF409338
:10083000020172FD230F2795889400C000C04093E9
:10084000020173FD230F00C050930201002C13FF1F
:10085000409302012795889474FD230F00C000C0C7
:10086000409302012795889400C050930201002C08
:1008700012FF4093020175FD230F2795889400C055
:1008800000C04093020176FD230F00C05093020187
:10089000002C11FF409302012795889477FD230FC8
:1008A00000C000C0409302012795889400C0509377
:1008B0000201002C10FF40930201132F7111122F1F
:1008C0009B0D00C000C04093020100C000C05093C7
:1008D0000201002C17FF40930201328122278894E5
:1008E00000C000C04093020131113C0D00C0509384
:1008F0000201002C16FF4093020108F43FEFED0DBA
:10090000F11D00C000C040930201F0FC230F00C0A5
:1009100050930201002C15FF409302012795889403
:10092000F1FC230F00C000C040930201279588947A
:1009300000C050930201002C14FF40930201F2FC0E
:10094000230F2795889400C000C040930201F3FC58
:10095000230F00C050930201002C13FF40930201AB
:1009600027958894F4FC230F00C000C04093020137
:100970002795889400C050930201002C12FF4093E9
:100980000201F5FC230F2795889400C000C0409316
:100990000201F6FC230F00C050930201002C11FF4E
:1009A0004093020127958894F7FC230F00C000C0F4
:1009B000409302012795889400C050930201002CB7
:1009C00010FF40930201132FF110122FC19400C0A9
:1009D00000C040930201CA0C00C0002C50930201D9
:1009E000002C17FF4093020131812227889400C018
:1009F00000C0409302013111380F00C05093020132
:100A0000002C16FF4093020108F43FEF8195889473
:100A100000C000C04093020160FD230F00C050934E
:100A20000201002C15FF409302012795889461FD77
:100A3000230F00C000C0409302012795889400C096
:100A400050930201002C14FF4093020162FD230F1A
:100A50002795889400C000C04093020163FD230FD6
:100A600000C050930201002C13FF40930201279510
:100A7000889464FD230F00C000C0409302012795B5
:100A8000889400C050930201002C12FF4093020191
:100A900065FD230F2795889400C000C04093020194
:100AA00066FD230F00C050930201002C11FF4093FC
:100AB00002012795889467FD230F00C000C0409372
:100AC00002012795889400C050930201002C10FF6A
:100AD00040930201132F6111122F8E0D00C000C030
:100AE00040930201119709F06CCE4A815B8120EEA0
:100AF00031E0DA010E94511FDC01CB01F4E0B69530
:100B0000A79597958795FA95D1F720E030E0B90140
:100B1000EAE94E9F040E611D5E9F600D711D112458
:100B2000650F711D860F971FA11DB11D893E43E002
:100B30009407A105B10508F434C0885E9340A1096B
:100B4000B10942E0B695A795979587954A95D1F753
:100B500047E0849F080E211D949F200D311D112414
:100B6000290F311D6091D00270E0860F971F820F10
:100B7000931F409181035091820360918303709190
:100B80008403292F3327420F531F611D711D40938A
:100B90008103509382036093830370938403809353
:100BA000D0027894C301DF91CF911F910F91FF90F4
:100BB000EF90DF90CF90BF90AF909F908F907F90FD
:100BC0006F900C945C1A0F931F93CF93DF93CDB764
:100BD000DEB762970FB6F894DEBF0FBECDBF8C01B3
:100BE000F901DC011C968C917A8369835C834B83C9
:100BF0005E834D8390819D8791819E8792819F879F
:100C0000813029F4CE0101960E941D1A06C01C866F
:100C10001B861A86198618861F82188A1A8A198ACC
:100C2000D801ED91FC910484F585E02DBE016F5F44
:100C30007F4FC801199562960FB6F894DEBF0FBEBC
:100C4000CDBFDF91CF911F910F9108950F931F9307
:100C5000CF93DF93CDB7DEB762970FB6F894DEBFC0
:100C60000FBECDBF8C01F901DC011C968C917A83FB
:100C700069835C834B835E834D8390819D879181E3
:100C80009E8792819F87813029F4CE0101960E9430
:100C90001D1A06C01C861B861A86198618861F8296
:100CA00083E0888B1A8A198AD801ED91FC9104841B
:100CB000F585E02DBE016F5F7F4FC80119956296E3
:100CC0000FB6F894DEBF0FBECDBFDF91CF911F915D
:100CD0000F910895CF93DF93DB01EC0128816D81A3
:100CE0007E81D3E02D0290011124EC01EB81FC8187
:100CF0006E177F0769F04C91408311964C911197C4
:100D0000418312964C9112974283E20FF31FF0CF6A
:100D1000DF91CF910895FC0140812381348147FF09
:100D200007C04DEF4603C001479F900D112405C039
:100D3000CB01880F991F860F971F820F931F08956D
:100D400080E991E008956C9A08956D9A08954F9204
:100D50005F926F927F928F92AF92BF92CF92DF920B
:100D6000EF920F931F93CF93DF93EB010F962C011C
:100D70000E94661AF894E881F9817EB170616EB1C3
:100D80006F7E6EB9CA848F812C2D281B822F2F83F2
:100D9000BF846A807B801D850C85DE841F5F0F5FAA
:100DA000D3949E813885A984EB844181D30120E0CE
:100DB000C32F522F322F3181442788943111380F9D
:100DC00008F43FEF8195889410FD430F4795889470
:100DD00011FD430F4795889412FD430F4795889462
:100DE00013FD430F4795889414FD430F479588944E
:100DF00015FD430F4795889416FD430F479588943A
:100E000017FD430F47958894232F1111242F8C0D24
:100E1000422F002C7EB900C047FF6EB930812227D7
:100E2000889400C000C0002C6EB93111390F00C089
:100E3000002C7EB900C046FF6EB908F43FEF9195D3
:100E4000889400C000C0002C6EB900FD230F00C0C4
:100E5000002C7EB900C045FF6EB92795889401FD2E
:100E6000230F00C000C0002C6EB92795889400C0E5
:100E7000002C7EB900C044FF6EB902FD230F2795F8
:100E8000889400C000C0002C6EB903FD230F00C081
:100E9000002C7EB900C043FF6EB92795889404FDED
:100EA000230F00C000C0002C6EB92795889400C0A5
:100EB000002C7EB900C042FF6EB905FD230F2795B7
:100EC000889400C000C0002C6EB906FD230F00C03E
:100ED000002C7EB900C041FF6EB92795889407FDAC
:100EE000230F00C000C0002C6EB92795889400C065
:100EF000002C7EB900C040FF6EB9432F0111422F74
:100F00009A0D00C000C0002C6EB900C000C0002CBB
:100F10007EB900C047FF6EB932812227889400C095
:100F200000C0002C6EB931113C0F00C0002C7EB9FE
:100F300000C046FF6EB908F43FEFEB0DF11D00C095
:100F400000C0002C6EB9D0FC230F00C0002C7EB96D
:100F500000C045FF6EB927958894D1FC230F00C0CF
:100F600000C0002C6EB92795889400C0002C7EB973
:100F700000C044FF6EB9D2FC230F2795889400C0AF
:100F800000C0002C6EB9D3FC230F00C0002C7EB92A
:100F900000C043FF6EB927958894D4FC230F00C08E
:100FA00000C0002C6EB92795889400C0002C7EB933
:100FB00000C042FF6EB9D5FC230F2795889400C06E
:100FC00000C0002C6EB9D6FC230F00C0002C7EB9E7
:100FD00000C041FF6EB927958894D7FC230F00C04D
:100FE00000C0002C6EB92795889400C0002C7EB9F3
:100FF00000C040FF6EB9432FD110422FC19500C0F1
:1010000000C0002C6EB9CE0D00C000C07EB900C07B
:1010100047FF6EB931812227889400C000C0002CA0
:101020006EB93111380F00C0002C7EB900C046FFE8
:101030006EB908F43FEF8195889400C000C0002C81
:101040006EB910FD230F00C0002C7EB900C045FF13
:101050006EB92795889411FD230F00C000C0002CA5
:101060006EB92795889400C0002C7EB900C044FF5B
:101070006EB912FD230F2795889400C000C0002C84
:101080006EB913FD230F00C0002C7EB900C043FFD2
:101090006EB92795889414FD230F00C000C0002C62
:1010A0006EB92795889400C0002C7EB900C042FF1D
:1010B0006EB915FD230F2795889400C000C0002C41
:1010C0006EB916FD230F00C0002C7EB900C041FF91
:1010D0006EB92795889417FD230F00C000C0002C1F
:1010E0006EB92795889400C0002C7EB900C040FFDF
:1010F0006EB9432F1111422F8C0D00C000C0002C7F
:101100006EB9119709F086CE20EE31E0D3010E942E
:10111000511FDC01CB01F4E0B695A7959795879513
:10112000FA95D1F720E030E0B901EAE96E9E060CAD
:10113000611D7E9E600D711D1124670D711D860F4E
:10114000971FA11DB11D893E43E09407A105B1057C
:1011500008F434C0885E9340A109B10942E0B69515
:10116000A795979587954A95D1F747E0849F080EF4
:10117000211D949F200D311D1124290F311D6091D7
:10118000D00270E0860F971F820F931F409181035A
:10119000509182036091830370918403292F332738
:1011A000420F531F611D711D4093810350938203B1
:1011B00060938303709384038093D0027894C20178
:1011C000DF91CF911F910F91EF90DF90CF90BF9063
:1011D000AF908F907F906F905F904F900C945C1ABF
:1011E0004F925F926F927F928F92AF92BF92CF9207
:1011F000DF92EF920F931F93CF93DF93EB010F9644
:101200002C010E94661AF894E881F9817EB170621F
:101210006EB16F7D6EB9CA848F812C2D281B822FF1
:101220002F83BF846A807B801D850C85DE841F5FD1
:101230000F5FD3949E813885A984EB844181D301CB
:1012400020E0C32F522F322F31814427889431114F
:10125000380F08F43FEF8195889410FD430F4795B0
:10126000889411FD430F4795889412FD430F4795CD
:10127000889413FD430F4795889414FD430F4795B9
:10128000889415FD430F4795889416FD430F4795A5
:10129000889417FD430F47958894232F1111242F0D
:1012A0008C0D422F002C7EB900C047FF6EB93081F3
:1012B0002227889400C000C0002C6EB93111390F6C
:1012C00000C0002C7EB900C046FF6EB908F43FEFA5
:1012D0009195889400C000C0002C6EB900FD230FCA
:1012E00000C0002C7EB900C045FF6EB927958894D8
:1012F00001FD230F00C000C0002C6EB92795889413
:1013000000C0002C7EB900C044FF6EB902FD230F5F
:101310002795889400C000C0002C6EB903FD230FF0
:1013200000C0002C7EB900C043FF6EB92795889499
:1013300004FD230F00C000C0002C6EB927958894CF
:1013400000C0002C7EB900C042FF6EB905FD230F1E
:101350002795889400C000C0002C6EB906FD230FAD
:1013600000C0002C7EB900C041FF6EB9279588945B
:1013700007FD230F00C000C0002C6EB9279588948C
:1013800000C0002C7EB900C040FF6EB9432F011190
:10139000422F9A0D00C000C0002C6EB900C000C0E2
:1013A000002C7EB900C047FF6EB932812227889495
:1013B00000C000C0002C6EB931113C0F00C0002CE1
:1013C0007EB900C046FF6EB908F43FEFEB0DF11D8A
:1013D00000C000C0002C6EB9D0FC230F00C0002C50
:1013E0007EB900C045FF6EB927958894D1FC230FC4
:1013F00000C000C0002C6EB92795889400C0002C56
:101400007EB900C044FF6EB9D2FC230F27958894A3
:1014100000C000C0002C6EB9D3FC230F00C0002C0C
:101420007EB900C043FF6EB927958894D4FC230F82
:1014300000C000C0002C6EB92795889400C0002C15
:101440007EB900C042FF6EB9D5FC230F2795889462
:1014500000C000C0002C6EB9D6FC230F00C0002CC9
:101460007EB900C041FF6EB927958894D7FC230F41
:1014700000C000C0002C6EB92795889400C0002CD5
:101480007EB900C040FF6EB9432FD110422FC195E5
:1014900000C000C0002C6EB9CE0D00C000C07EB9E7
:1014A00000C047FF6EB931812227889400C000C078
:1014B000002C6EB93111380F00C0002C7EB900C06D
:1014C00046FF6EB908F43FEF8195889400C000C0D4
:1014D000002C6EB910FD230F00C0002C7EB900C097
:1014E00045FF6EB92795889411FD230F00C000C0F9
:1014F000002C6EB92795889400C0002C7EB900C0DE
:1015000044FF6EB912FD230F2795889400C000C0D8
:10151000002C6EB913FD230F00C0002C7EB900C053
:1015200043FF6EB92795889414FD230F00C000C0B7
:10153000002C6EB92795889400C0002C7EB900C09D
:1015400042FF6EB915FD230F2795889400C000C097
:10155000002C6EB916FD230F00C0002C7EB900C010
:1015600041FF6EB92795889417FD230F00C000C076
:10157000002C6EB92795889400C0002C7EB900C05D
:1015800040FF6EB9432F1111422F8C0D00C000C0D7
:10159000002C6EB9119709F086CE20EE31E0D30110
:1015A0000E94511FDC01CB01F4E0B695A7959795F9
:1015B0008795FA95D1F720E030E0B901EAE96E9E0F
:1015C000060C611D7E9E600D711D1124670D711D3D
:1015D000860F971FA11DB11D893E43E09407A10509
:1015E000B10508F434C0885E9340A109B10942E016
:1015F000B695A795979587954A95D1F747E0849F2B
:10160000080E211D949F200D311D1124290F311D1D
:101610006091D00270E0860F971F820F931F409158
:101620008103509182036091830370918403292F79
:101630003327420F531F611D711D40938103509347
:10164000820360938303709384038093D002789421
:10165000C201DF91CF911F910F91EF90DF90CF905A
:10166000BF90AF908F907F906F905F904F900C9451
:101670005C1A9D9A08956B9A08954F925F926F92AB
:101680007F928F92AF92BF92CF92DF92EF920F93A1
:101690001F93CF93DF93EB010F962C010E94661AE4
:1016A000F894E881F98174B3706264B36F7D64BBB0
:1016B000CA848F812C2D281B822F2F83BF846A80A0
:1016C0007B801D850C85DE841F5F0F5FD3949E8118
:1016D0003885A984EB844181D30120E0C32F522FA8
:1016E000322F3181442788943111380F08F43FEFAD
:1016F0008195889410FD430F4795889411FD430F01
:101700004795889412FD430F4795889413FD430F26
:101710004795889414FD430F4795889415FD430F12
:101720004795889416FD430F4795889417FD430FFE
:1017300047958894232F1111242F8C0D422F002CB4
:1017400074BB00C047FF64BB30812227889400C06F
:1017500000C0002C64BB3111390F00C0002C74BBD9
:1017600000C046FF64BB08F43FEF9195889400C029
:1017700000C0002C64BB00FD230F00C0002C74BB14
:1017800000C045FF64BB2795889401FD230F00C06E
:1017900000C0002C64BB2795889400C0002C74BB4B
:1017A00000C044FF64BB02FD230F2795889400C04E
:1017B00000C0002C64BB03FD230F00C0002C74BBD1
:1017C00000C043FF64BB2795889404FD230F00C02D
:1017D00000C0002C64BB2795889400C0002C74BB0B
:1017E00000C042FF64BB05FD230F2795889400C00D
:1017F00000C0002C64BB06FD230F00C0002C74BB8E
:1018000000C041FF64BB2795889407FD230F00C0EB
:1018100000C0002C64BB2795889400C0002C74BBCA
:1018200000C040FF64BB432F0111422F9A0D00C03E
:1018300000C0002C64BB00C000C0002C74BB00C002
:1018400047FF64BB32812227889400C000C0002C6F
:1018500064BB31113C0F00C0002C74BB00C046FFBC
:1018600064BB08F43FEFEB0DF11D00C000C0002C7D
:1018700064BBD0FC230F00C0002C74BB00C045FF2C
:1018800064BB27958894D1FC230F00C000C0002CB6
:1018900064BB2795889400C0002C74BB00C044FF33
:1018A00064BBD2FC230F2795889400C000C0002C95
:1018B00064BBD3FC230F00C0002C74BB00C043FFEB
:1018C00064BB27958894D4FC230F00C000C0002C73
:1018D00064BB2795889400C0002C74BB00C042FFF5
:1018E00064BBD5FC230F2795889400C000C0002C52
:1018F00064BBD6FC230F00C0002C74BB00C041FFAA
:1019000064BB27958894D7FC230F00C000C0002C2F
:1019100064BB2795889400C0002C74BB00C040FFB6
:1019200064BB432FD110422FC19500C000C0002CD2
:1019300064BBCE0D00C000C074BB00C047FF64BBD9
:1019400031812227889400C000C0002C64BB311173
:10195000380F00C0002C74BB00C046FF64BB08F405
:101960003FEF8195889400C000C0002C64BB10FD3F
:10197000230F00C0002C74BB00C045FF64BB27953B
:10198000889411FD230F00C000C0002C64BB279574
:10199000889400C0002C74BB00C044FF64BB12FDDF
:1019A000230F2795889400C000C0002C64BB13FD52
:1019B000230F00C0002C74BB00C043FF64BB2795FD
:1019C000889414FD230F00C000C0002C64BB279531
:1019D000889400C0002C74BB00C042FF64BB15FD9E
:1019E000230F2795889400C000C0002C64BB16FD0F
:1019F000230F00C0002C74BB00C041FF64BB2795BF
:101A0000889417FD230F00C000C0002C64BB2795ED
:101A1000889400C0002C74BB00C040FF64BB432FFF
:101A20001111422F8C0D00C000C0002C64BB119717
:101A300009F086CE20EE31E0D3010E94511FDC0177
:101A4000CB01F4E0B695A79597958795FA95D1F7D0
:101A500020E030E0B901EAE96E9E060C611D7E9E31
:101A6000600D711D1124670D711D860F971FA11D3B
:101A7000B11D893E43E09407A105B10508F434C0C7
:101A8000885E9340A109B10942E0B695A795979564
:101A900087954A95D1F747E0849F080E211D949FB2
:101AA000200D311D1124290F311D6091D00270E0ED
:101AB000860F971F820F931F4091810350918203DD
:101AC0006091830370918403292F3327420F531FA2
:101AD000611D711D409381035093820360938303C2
:101AE000709384038093D0027894C201DF91CF91E8
:101AF0001F910F91EF90DF90CF90BF90AF908F909C
:101B00007F906F905F904F900C945C1A4F925F9211
:101B10006F927F928F92AF92BF92CF92DF92EF92AD
:101B20000F931F93CF93DF93EB010F962C010E942D
:101B3000661AF894E881F9817EB178606EB1677FAA
:101B40006EB9CA848F812C2D281B822F2F83BF84CE
:101B50006A807B801D850C85DE841F5F0F5FD394B8
:101B60009E813885A984EB844181D30120E0C32F75
:101B7000522F322F3181442788943111380F08F4C5
:101B80003FEF8195889410FD430F4795889411FD90
:101B9000430F4795889412FD430F4795889413FD92
:101BA000430F4795889414FD430F4795889415FD7E
:101BB000430F4795889416FD430F4795889417FD6A
:101BC000430F47958894232F1111242F8C0D422FFA
:101BD000002C7EB900C047FF6EB93081222788945F
:101BE00000C000C0002C6EB93111390F00C0002CAC
:101BF0007EB900C046FF6EB908F43FEF9195889416
:101C000000C000C0002C6EB900FD230F00C0002CE6
:101C10007EB900C045FF6EB92795889401FD230F5A
:101C200000C000C0002C6EB92795889400C0002C1D
:101C30007EB900C044FF6EB902FD230F279588943A
:101C400000C000C0002C6EB903FD230F00C0002CA3
:101C50007EB900C043FF6EB92795889404FD230F19
:101C600000C000C0002C6EB92795889400C0002CDD
:101C70007EB900C042FF6EB905FD230F27958894F9
:101C800000C000C0002C6EB906FD230F00C0002C60
:101C90007EB900C041FF6EB92795889407FD230FD8
:101CA00000C000C0002C6EB92795889400C0002C9D
:101CB0007EB900C040FF6EB9432F0111422F9A0D2B
:101CC00000C000C0002C6EB900C000C0002C7EB95E
:101CD00000C047FF6EB932812227889400C000C03F
:101CE000002C6EB931113C0F00C0002C7EB900C031
:101CF00046FF6EB908F43FEFEB0DF11D00C000C0C8
:101D0000002C6EB9D0FC230F00C0002C7EB900C09F
:101D100045FF6EB927958894D1FC230F00C000C001
:101D2000002C6EB92795889400C0002C7EB900C0A5
:101D300044FF6EB9D2FC230F2795889400C000C0E1
:101D4000002C6EB9D3FC230F00C0002C7EB900C05C
:101D500043FF6EB927958894D4FC230F00C000C0C0
:101D6000002C6EB92795889400C0002C7EB900C065
:101D700042FF6EB9D5FC230F2795889400C000C0A0
:101D8000002C6EB9D6FC230F00C0002C7EB900C019
:101D900041FF6EB927958894D7FC230F00C000C07F
:101DA000002C6EB92795889400C0002C7EB900C025
:101DB00040FF6EB9432FD110422FC19500C000C023
:101DC000002C6EB9CE0D00C000C07EB900C047FF28
:101DD0006EB931812227889400C000C0002C6EB9F2
:101DE0003111380F00C0002C7EB900C046FF6EB91B
:101DF00008F43FEF8195889400C000C0002C6EB9B4
:101E000010FD230F00C0002C7EB900C045FF6EB945
:101E10002795889411FD230F00C000C0002C6EB9D7
:101E20002795889400C0002C7EB900C044FF6EB98D
:101E300012FD230F2795889400C000C0002C6EB9B6
:101E400013FD230F00C0002C7EB900C043FF6EB904
:101E50002795889414FD230F00C000C0002C6EB994
:101E60002795889400C0002C7EB900C042FF6EB94F
:101E700015FD230F2795889400C000C0002C6EB973
:101E800016FD230F00C0002C7EB900C041FF6EB9C3
:101E90002795889417FD230F00C000C0002C6EB951
:101EA0002795889400C0002C7EB900C040FF6EB911
:101EB000432F1111422F8C0D00C000C0002C6EB9B1
:101EC000119709F086CE20EE31E0D3010E94511F18
:101ED000DC01CB01F4E0B695A79597958795FA9527
:101EE000D1F720E030E0B901EAE96E9E060C611DF1
:101EF0007E9E600D711D1124670D711D860F971F49
:101F0000A11DB11D893E43E09407A105B10508F468
:101F100034C0885E9340A109B10942E0B695A79507
:101F2000979587954A95D1F747E0849F080E211D24
:101F3000949F200D311D1124290F311D6091D00275
:101F400070E0860F971F820F931F4091810350917D
:101F500082036091830370918403292F3327420FFA
:101F6000531F611D711D4093810350938203609341
:101F70008303709384038093D0027894C201DF912D
:101F8000CF911F910F91EF90DF90CF90BF90AF90C6
:101F90008F907F906F905F904F900C945C1ACF92CF
:101FA000DF92EF92FF920F931F93CF93DF936C0119
:101FB0007A018B01C0E0D0E0CE15DF0581F0D801B9
:101FC0006D918D01D601ED91FC910190F081E02D94
:101FD000C6011995892B11F02196EECF7E01C7011C
:101FE000DF91CF911F910F91FF90EF90DF90CF90F5
:101FF0000895089580E090E0089587E893E00E94B6
:10200000471921E0892B09F420E0822F08950E94CE
:102010006C1F1F920F920FB60F9211240BB60F92E6
:102020002F933F934F935F936F937F938F939F93E0
:10203000AF93BF93EF93FF9387E893E00E948C19CF
:10204000FF91EF91BF91AF919F918F917F916F9190
:102050005F914F913F912F910F900BBE0F900FBE4C
:102060000F901F9018951F920F920FB60F92112488
:102070000BB60F922F938F939F93EF93FF93E09163
:102080009703F09198038081E0919D03F0919E0366
:1020900082FD12C090818091A0038F5F8F73209189
:1020A000A103821751F0E091A003F0E0E957FC4F43
:1020B000958F8093A00301C08081FF91EF919F9144
:1020C0008F912F910F900BBE0F900FBE0F901F900E
:1020D0001895CF93DF9300D000D0CDB7DEB7AB011A
:1020E0001C821D821E82DC01ED91FC910190F08129
:1020F000E02D19821A821B829E012F5F3F4FBE0185
:102100006C5F7F4F199526960FB6F894DEBF0FBE11
:10211000CDBFDF91CF910895FC0185859685089507
:10212000DA01FC0180E090E0861797076CF42C91AF
:10213000208311962C911197218312962C9112973E
:10214000228301963396F0CF0895CF93DF9300D08A
:10215000CDB7DEB719821A821B82AE014F5F5F4F87
:102160006EEE70E080910F12909110120E9490100C
:1021700019821A821B82AE014F5F5F4F6EEE70E0D4
:1021800080913E0F90913F0F0E94901019821A8209
:102190001B82AE014F5F5F4F68EE70E080917F0C55
:1021A0009091800C0E94901019821A821B82AE01BD
:1021B0004F5F5F4F6CEE70E08091B4099091B5096C
:1021C0000E94901019821A821B82AE014F5F5F4FEE
:1021D0006DEE70E08091E6069091E7060E94901007
:1021E00019821A821B82AE014F5F5F4F68EE70E06A
:1021F00080912704909128040E9490100F900F90D6
:102200000F90DF91CF91089580E090E00895FC0158
:102210008DE792E091838083138212828FEF868311
:102220008783808781878287838781E0848716867A
:102230001586158214828091850390918603892BDF
:1022400021F4F0938603E0938503A0917F03B0917E
:102250008003109721F01596FC93EE931497F0935A
:102260008003E0937F030895482F982F46FD9095B3
:10227000E92FEF739F7046FD9F5FE695E695E69523
:10228000E670F0E0EF58FD4F2181299F802D212D30
:10229000112482958F702295207F822B3081982F78
:1022A000930F892F47FD8195805808954091000232
:1022B0005091010225E038E0429FC001439F900DFC
:1022C000529F900D1124875E994C90930102809348
:1022D0000002890F08951F93DC01FB017C91119688
:1022E0004C91119712961C91972F9F71990F990FEE
:1022F000990F35E5292F239F020E20E0211D11247F
:10230000822F672F6074572F507277FD1FC06111A5
:102310000AC0511103C0922F909511C025E5280FD6
:1023200090E08BEA34C051110DC0392F2AEA329F58
:10233000030E30E0311D11249BEA931B280F892FD7
:1023400090E025C090E02095982F0FC0611112C039
:1023500051110DC0392F2AEA329F030E30E0311D92
:1023600011242BEA231B95E5930F80E010C0922FD8
:1023700090950CC0511104C025E5280F9BEA04C0BC
:102380002AEA280F90E0932F981B822F20E04F3FDE
:1023900009F427C0442311F1882331F0382F349FEA
:1023A000030E30E0311D832F222321F0249F020EE3
:1023B00020E0211D992331F0392F349F030E30E0A6
:1023C000311D932F1124342F3095339F030E30E0AD
:1023D000311D1124830F230F930F03C09FEF2FEFA5
:1023E0008FEF1F3F09F424C030E0112321F0119F2B
:1023F000312D09F03F5F3323C1F0882331F0482F9E
:10240000439F040E40E0411D842F222321F0239F8F
:10241000020E20E0211D992331F0492F439F040E25
:1024200040E0411D942F112403C090E020E080E0A3
:102430008083218392831F9108951F93CF93DF930D
:1024400000D000D0CDB7DEB7109104028091020217
:102450009091D20299838A831B83BE016C5F7F4F68
:10246000CE0101960E946B11AE014C5F5F4F6EEE84
:1024700070E080910F12909110120E949010809144
:1024800002029091D20299838A831B83BE016C5F02
:102490007F4FCE0101960E946B11AE014C5F5F4FE2
:1024A0006EEE70E080913E0F90913F0F0E94901071
:1024B000809102029091D20299838A831B83BE018C
:1024C0006C5F7F4FCE0101960E946B11AE014C5F95
:1024D0005F4F68EE70E080917F0C9091800C0E94BD
:1024E0009010809102029091D20299838A831B837B
:1024F000BE016C5F7F4FCE0101960E946B11AE0151
:102500004C5F5F4F6CEE70E08091B4099091B5091B
:102510000E949010809102029091D20299838A8346
:102520001B83BE016C5F7F4FCE0101960E946B1131
:10253000AE014C5F5F4F6DEE70E08091E6069091CA
:10254000E7060E949010809102029091D202998336
:102550008A831B83BE016C5F7F4FCE0101960E9470
:102560006B11AE014C5F5F4F68EE70E08091270405
:10257000909128040E94901026960FB6F894DEBF22
:102580000FBECDBFDF91CF911F910895FF920F93A2
:102590001F93CF93DF9300D0CDB7DEB7182F6623FC
:1025A00069F10E94A51089EC92E00E947B1680914F
:1025B000D3020E94CE168091DD140E9420171230A3
:1025C00031F168F41123B9F0113009F0DEC2109234
:1025D00002028FEF809304020E941D12D6C21330B4
:1025E00009F488C0143009F0D0C21092D40281E0FE
:1025F0008093D102A1C20E94A510C7C2833009F402
:1026000079C0843009F498C2823009F0BEC290913A
:10261000D10280910402911102C08B5F03C09130FE
:1026200019F4855080930402009104020A3F20F0BF
:1026300081E08093D10204C0063010F41092D102E0
:102640001FEF19831A821B82AE014F5F5F4F6EEE40
:1026500070E080910F12909110120E9490101982D8
:102660001A821B83AE014F5F5F4F6EEE70E0809168
:102670003E0F90913F0F0E949010198280E8F82E33
:10268000FA821B82AE014F5F5F4F68EE70E080916F
:102690007F0C9091800C0E94901019831A821B82EB
:1026A000AE014F5F5F4F6CEE70E08091B409909186
:1026B000B5090E94901019821A821B83AE014F5FE8
:1026C0005F4F6DEE70E08091E6069091E7060E9404
:1026D00090101982FA821B82AE014F5F5F4F68EE45
:1026E00070E080912704909128040E94901000933C
:1026F000DD144BC21FEF19831A821B82BE016F5F6C
:102700007F4F8CE092E10E946A06198200E80A83FA
:102710001B82BE016F5F7F4F8BE39FE00E946A06C2
:1027200019821A821B83BE016F5F7F4F8CE79CE08A
:102730000E946A0619831A831B82BE016F5F7F4F56
:1027400081EB99E00E946A068BE889831A828B8369
:10275000BE016F5F7F4F83EE96E00E946A06198389
:1027600084E18A8383E98B83BE016F5F7F4F84E2BC
:1027700094E00E946A0660E070E08CE092E10E94C2
:102780008B06FC0110820183128269E370E08CE009
:1027900092E10E948B06FC011082018312826AE39F
:1027A00070E08CE092E10E948B06FC0110821182A5
:1027B000128365E770E08CE092E10E948B06FC01D9
:1027C00010821182128366E770E08CE092E10E9431
:1027D0008B06FC0110820183128261EB70E08CE0B9
:1027E00092E10E948B06FC0110820183128262EB4F
:1027F00070E08CE092E10E948B06FC011082118255
:1028000012836DEE70E08BE39FE00E948B06FC016B
:1028100010821182128360E070E08BE39FE00E94DF
:102820008B06FC0110831182128269E370E08BE356
:102830009FE00E948B06FC011083118212826AE3E2
:1028400070E08BE39FE00E948B06FC0110821182F6
:10285000128365E770E08BE39FE00E948B06FC012A
:1028600010821182128366E770E08BE39FE00E9482
:102870008B06FC0110831182128261EB70E08BE306
:102880009FE00E948B06FC0110831182128262EB92
:1028900070E08BE39FE00E948B06FC0110821182A6
:1028A00012836DEE70E08BE39FE00E948B06FC01CB
:1028B00010821182128360E070E08CE79CE00E943D
:1028C0008B06FC0110820183128263E370E08CE7C7
:1028D0009CE00E948B06FC0110820183128264E35B
:1028E00070E08CE79CE00E948B06FC011083118253
:1028F00012826FE670E08CE79CE00E948B06FC0180
:1029000010831182128260E770E08CE79CE00E94E5
:102910008B06FC011082018312826BEA70E08CE767
:102920009CE00E948B06FC011082018312826CEAFB
:1029300070E08CE79CE00E948B06FC011083118202
:10294000128267EE70E08CE79CE00E948B06FC012F
:1029500010831182128260E070E081EB99E00E94A6
:102960008B06FC0110820183128265E370E081EB2B
:1029700099E00E948B06FC0110820183128266E3BB
:1029800070E081EB99E00E948B06FC0110821182BD
:10299000128361E770E081EB99E00E948B06FC01F5
:1029A00010821182128362E770E081EB99E00E944D
:1029B0008B06FC011082018312826DEA70E081EBCC
:1029C00099E00E948B06FC011082018312826EEA5C
:1029D00070E081EB99E00E948B06FC01108211826D
:1029E000128369EE70E081EB99E00E948B06FC0196
:1029F00010821182128360E070E083EE96E00E9404
:102A00008B06FC0110820183128268E370E083EE82
:102A100096E00E948B06FC0110820183128269E31A
:102A200070E083EE96E00E948B06FC01108211821A
:102A3000128364E770E083EE96E00E948B06FC014F
:102A400010821182128365E770E083EE96E00E94A7
:102A50008B06FC0110820183128260EB70E083EE32
:102A600096E00E948B06FC0110820183128261EBCA
:102A700070E083EE96E00E948B06FC0110821182CA
:102A800012836CEE70E083EE96E00E948B06FC01F0
:102A900010821182128360E070E084E294E00E9470
:102AA0008B06FC0110820183128269E370E084E2EC
:102AB00094E00E948B06FC011082018312826AE37B
:102AC00070E084E294E00E948B06FC011082118287
:102AD000128365E770E084E294E00E948B06FC01BB
:102AE00010821182128366E770E084E294E00E9413
:102AF0008B06FC0110820183128261EB70E084E29C
:102B000094E00E948B06FC0110820183128262EB2A
:102B100070E084E294E00E948B06FC011082118236
:102B200012836DEE70E084E294E00E948B06FC015B
:102B300010821182128329C06091D2028CE092E14E
:102B40000E945B166091D2028BE39FE00E945B16AD
:102B50006091D2028CE79CE00E945B166091D202E9
:102B600081EB99E00E945B166091D20283EE96E0C1
:102B70000E945B166091D20284E294E00E945B1690
:102B80008091D2028F5F8093D2020F900F900F90AE
:102B9000DF91CF911F910F91FF900895FC01DB0110
:102BA0003C912081230F08F42FEF208311963C9154
:102BB00011972181230F08F42FEF218312963C9166
:102BC0002281230F08F42FEF22830895CF92DF9202
:102BD000EF92FF920F931F93CF93DF9300D0CDB767
:102BE000DEB76B0149832FEF2B8320EF2A838C0103
:102BF000E12CF12CEC14FD0474F4B801CE01019623
:102C00000E946B1189818B5F89838FEFE81AF80A24
:102C10000D5F1F4FEFCF0F900F900F90DF91CF916F
:102C20001F910F91FF90EF90DF90CF900895EF925A
:102C3000FF920F931F93CF93DF93EC017B018A01E7
:102C4000E881F9810480F581E02D1995FB82EA8203
:102C50001E870D87E881F9810284F385E02DCE017E
:102C60001995009701F19C0140E050E060E472E4A6
:102C70008FE090E00E942A1F8091E0149091E1146F
:102C8000A091E214B091E31482179307A407B5074B
:102C900010F4DA01C9018093E0149093E114A09339
:102CA000E214B093E314CE01DF91CF911F910F9105
:102CB000FF90EF900895CF93DF93EC01462F58815A
:102CC00029813A818B819C8157FD02C0B9010DC0D9
:102CD00066277727621B730B2F5F3F4FF901EE0FBB
:102CE000FF1F2E0F3F1F820F931F0E94E615CE017C
:102CF000DF91CF910895009769F0FC0101900020C9
:102D0000E9F73197AF01481B590BBC0187E893E005
:102D10000C94CF0F80E090E008958F929F92AF9235
:102D2000BF920F931F93CF93DF93CDB7DEB7A197D9
:102D30000FB6F894DEBF0FBECDBF19A2423008F423
:102D40004AE08E010F5D1F4F842E912CA12CB12CD7
:102D5000A50194010E94081FE62FB901CA01015084
:102D60001109EA3014F4E05D01C0E95CD801EC938C
:102D7000232B242B252B61F7C8010E947B16A196DB
:102D80000FB6F894DEBF0FBECDBFDF91CF911F917C
:102D90000F91BF90AF909F908F900895CF93DF9346
:102DA000682F70E080E090E04AE00E948D16EC0110
:102DB00083EB92E00E947B168C0F9D1FDF91CF91D9
:102DC0000895CF93DF930E947B16EC0183EB92E092
:102DD0000E947B168C0F9D1FDF91CF9108953FB706
:102DE000F8948091EB149091EC14A091ED14B091B3
:102DF000EE1426B5A89B05C02F3F19F00196A11D22
:102E0000B11D3FBFBA2FA92F982F8827820F911D80
:102E1000A11DB11DBC01CD0142E0660F771F881FC7
:102E2000991F4A95D1F708952FB7F89460918103BF
:102E30007091820380918303909184032FBF089542
:102E40003F924F925F926F927F928F929F92AF923A
:102E5000BF92CF92DF92EF92FF920F931F93CF9387
:102E6000DF9300D0CDB7DEB7F82E8091E0149091BB
:102E7000E114A091E214B091E314892B8A2B8B2BDF
:102E8000E9F00E94EF160091F5141091F6142091CC
:102E9000F7143091F814DC01CB01801B910BA20BCD
:102EA000B30B0091E0141091E1142091E2143091E1
:102EB000E31480179107A207B307B8F20E94EF1638
:102EC0006093F5147093F6148093F7149093F814AC
:102ED000E091E814F091E914309759F04091E4142E
:102EE0005091E5146091E6147091E7148F2D1995B7
:102EF000F82E00918503109186034F2C512C612CE4
:102F0000712C0115110509F45FC0D8011C96EC90D5
:102F10001C978091DE149091DF148436910510F493
:102F20001C961C92D801ED91FC91A280B38019826D
:102F30001A821B82F11014C0F80145855685628102
:102F400073819E012F5F3F4FC801F5011995D8018C
:102F50001C96EC921C9714960D911C911597D1CF4D
:102F6000F8013696CE0101966C01480199E0890E70
:102F7000911C2191222309F132803320F1F0822F1C
:102F800090E0A0E0B0E09C01AD012F5F3F4F4F4FBC
:102F90005F4FC301B2010E94E41E9B01AC01832D6F
:102FA00090E0A0E0B0E0BC01CD016F5F7F4F8F4F9C
:102FB0009F4F0E94E41ED6018C93BFEFCB1ADB0A11
:102FC000E815F905B1F6B8CF8091F3149091F41497
:102FD0008C010F5F1F4F1093F4140093F314499763
:102FE0009CF10E9414174B015C0188EE93E0089F4E
:102FF000B001099F700D189F700D1124072E000C51
:10300000880B990BC090EF14D090F014E090F1145D
:10301000F090F214A50194012C193D094E095F09A5
:103020000E94081F3093DF142093DE141092F414D2
:103030001092F3140E9414176093EF147093F0141D
:103040008093F1149093F2140F900F900F90DF91F2
:10305000CF911F910F91FF90EF90DF90CF90BF9095
:10306000AF909F908F907F906F905F904F903F9028
:1030700008950F931F930E94141760938F0370930A
:103080009003809391039093920387E893E00E94CA
:10309000391997FF1FC00E94141700918F031091D8
:1030A00090032091910330919203DC01CB01801BAE
:1030B000910BA20BB30B00918B0310918C03209109
:1030C0008D0330918E0380179107A207B307E8F2B2
:1030D0008FEF9FEF1F910F910895CF92DF92EF92A4
:1030E000FF92CF930E943918FC0197FD0BC08D32DF
:1030F000910561F0C0970A9748F087E893E00E9435
:103100002519F0CF60E070E0CB0140C0C12CD12C7C
:103110007601C0E0E130F10501F1ED32F105E1F0B9
:10312000CF01C0970A97C8F4AAE0B0E0A7019601C2
:103130000E94CA1E6F01FF0FEE08FF08DC01CB01E1
:103140008C0D9D1DAE1DBF1D6C017D0120E3C21ABB
:10315000D108E108F10801C0C1E087E893E00E94CE
:1031600025190E943918FC01C0970A9798F2E1309E
:10317000F10581F2CC2341F066277727CB016C194A
:103180007D098E099F0902C0C701B601CF91FF904A
:10319000EF90DF90CF9008951F920F920FB60F928D
:1031A00011242F933F938F939F93AF93BF9380915D
:1031B000810390918203A0918303B09184033091A5
:1031C000EA1423E0230F2D3720F40196A11DB11D31
:1031D00005C026E8230F0296A11DB11D2093EA1415
:1031E0008093810390938203A0938303B09384031D
:1031F0008091EB149091EC14A091ED14B091EE1429
:103200000196A11DB11D8093EB149093EC14A09333
:10321000ED14B093EE14BF91AF919F918F913F91B8
:103220002F910F900FBE0F901F901895FC01538D9A
:10323000448D252F30E0842F90E0821B930B541790
:1032400010F0CF96089501970895FC01918D828D1D
:10325000981761F0828DDF01A80FB11D5D968C91EA
:10326000928D9F5F9F73928F90E008958FEF9FEFF5
:103270000895FC01918D828D981731F0828DE80FB1
:10328000F11D858D90E008958FEF9FEF0895FC016B
:10329000918D228D892F90E0805C9F4F821B910938
:1032A0008F739927089580E090E0892B21F00E9488
:1032B000FD0F811125C080E090E0892B41F080E076
:1032C00090E0892B21F00E94000081111CC080E059
:1032D00090E0892B41F080E090E0892B21F00E9462
:1032E0000000811113C080E090E0892BA1F080E004
:1032F00090E0892B81F00E94000081110AC008959E
:103300000E940000D8CF0E940000E1CF0E94000080
:10331000EACF0C9400000895FC01848DDF01A80F12
:10332000B11DA35ABF4F2C91848D90E001968F73ED
:103330009927848FA689B7892C93A089B1898C910C
:10334000837080648C93938D848D981306C002885B
:10335000F389E02D80818F7D80830895EF92FF9225
:103360000F931F93CF93DF93EC0181E0888F9B8DA8
:103370008C8D981305C0E889F989808185FD26C068
:10338000F62E0B8D10E00F5F1F4F0F731127E02EED
:103390008C8DE8120CC00FB607FCFACFE889F989CA
:1033A000808185FFF5CFCE010E948C19F1CF8B8DE6
:1033B000FE01E80FF11DE35AFF4FF0829FB7F8942A
:1033C0000B8FEA89FB89808180620AC09FB7F894DD
:1033D000EE89FF896083E889F98980818370806440
:1033E00080839FBF81E090E0DF91CF911F910F918B
:1033F000FF90EF900895CF93DF93EC01888D8823A1
:10340000C9F0EA89FB89808185FD05C0A889B98951
:103410008C9186FD0FC00FB607FCF5CF808185FF2C
:10342000F2CFA889B9898C9185FFEDCFCE010E949A
:103430008C19E7CFDF91CF9108950F931F93CF930E
:10344000DF932091F9142F5F322F37703093F914E6
:1034500020FF02C020E801C020E031FD206434706C
:1034600009F02062205FFC01EC01239600E011E0EE
:103470006485662331F070E0C8010E94F41E6F5F1E
:1034800001C060E06187322F369F030E30E0311DAE
:103490001124311102C0168202C0315036836623D6
:1034A00011F0615061873196CE17DF0709F7DF9180
:1034B000CF911F910F910895CF93DF93EC010E945C
:1034C000EF1679836883DF91CF910895CF93DF93CF
:1034D000EC010E94EF1628813981621B730B6A3060
:1034E0007105B8F3DF91CF910895CF93DF9300D0AA
:1034F000CDB7DEB7789484B5826084BD84B5816031
:1035000084BD85B5826085BD85B5816085BD8091AE
:103510006E00816080936E00109281008091810026
:10352000826080938100809181008160809381001E
:10353000809180008160809380008091B1008460E0
:103540008093B1008091B00081608093B000809141
:1035500091008260809391008091910081608093BE
:103560009100809190008160809390008091A100F3
:1035700082608093A1008091A10081608093A1006E
:103580008091A00081608093A000809121018260E1
:10359000809321018091210181608093210180919C
:1035A000200181608093200180917A008460809363
:1035B0007A0080917A00826080937A0080917A000C
:1035C000816080937A0080917A00806880937A008D
:1035D0001092C100E0919703F091980382E08083FC
:1035E000E0919703F09198031082E0919303F0919A
:1035F00094031082E0919503F091960380E180831B
:1036000010929F03E0919B03F0919C0386E08083DE
:10361000E0919903F0919A03808180618083E09129
:103620009903F0919A03808188608083E0919903E7
:10363000F0919A03808180688083E0919903F091F2
:103640009A0380818F7D80838CED95E0A0E0B0E0CF
:1036500080938B0390938C03A0938D03B0938E0380
:103660000E94EF166B017C0198EE892E93E0992E53
:10367000A12CB12C0E94EF16DC01CB018C199D0905
:10368000AE09BF09883E9340A105B10598F321E03A
:10369000821A9108A108B10888EEC80E83E0D81EEE
:1036A000E11CF11C81149104A104B10419F70091EB
:1036B0000F12109110128091E602811111C085ED58
:1036C00092E00E9407111092E5021092E40289E054
:1036D00092E09093D6028093D50281E08093E60237
:1036E0004EEE50E0B80185ED92E00E941716009171
:1036F0003E0F10913F0F8091FF02811111C08EEE9D
:1037000092E00E9407111092FE021092FD028BE1DE
:1037100092E09093EF028093EE0281E08093FF02AB
:103720004EEE50E0B8018EEE92E00E941716009126
:103730007F0C1091800C80911803811111C087E0DB
:1037400093E00E94071110921703109216038DE266
:1037500092E0909308038093070381E0809318031D
:1037600048EE50E0B80187E093E00E941716009100
:10377000B4091091B50980913103811111C080E223
:1037800093E00E9407111092300310922F038FE3F1
:1037900092E0909321038093200381E08093310392
:1037A0004CEE50E0B80180E293E00E9417160091C1
:1037B000E6061091E70680914A03811111C089E362
:1037C00093E00E940711109249031092480381E58B
:1037D00092E090933A038093390381E080934A0307
:1037E0004DEE50E0B80189E393E00E941716009176
:1037F00027041091280480916303811111C082E590
:1038000093E00E940711109262031092610383E615
:1038100092E0909353038093520381E0809363037B
:1038200048EE50E0B80182E593E00E94171680EE62
:1038300092E1909301028093000280917B00877F48
:1038400080937B0082E480937C0080917A00806486
:1038500080937A0080917A0086FDFCCF8091780079
:103860002091790090E0922B20910002309101028A
:10387000820F931F90930102809300028BE992E0E4
:103880000E94E11682E08093D302812C912C540196
:1038900088EEC82ED12CE12CF12CC501B401A70172
:1038A00096010E942A1F122F80E4820F0E94341179
:1038B000812F0E9434118FEF981AA80AB80A811438
:1038C00098EE9906A104B10441F761E082E00E94FC
:1038D000C61201E0FF24F3941FEF87E893E00E94F3
:1038E0004719181619060CF0E1C087E893E00E940A
:1038F000251980936D038A3071F080EB92E00E946D
:103900007B1660916D0387E893E00E94AE1981EB0E
:1039100092E00E947B16E0916D038E2F90E0FC01F7
:10392000E156F109E731F105C0F68827EE58FF4F5F
:103930008F4F0C94491F1092D3020E946D188090F3
:103940006B0390906C0397FC08C0882D2FEF8216B4
:10395000910421F01CF08FEF01C080E08093D2022F
:10396000092C000CAA08BB08B7FE0EC06DE287E860
:1039700093E00E94AE1966277727CB016819790971
:103980008A099B094AE003C04AE0C501B4010E94CC
:103990008D1683EB92E00E947B160E941D129DCF34
:1039A0000E946D18862F609303020E94CE168091AC
:1039B00003028093DD1491CF81EB92E00E94E11627
:1039C0001092D30261E080E03FC00E946D187093B6
:1039D0006C0360936B0377FD08C06F3F710519F0AE
:1039E00014F06FEF70E0862F01C080E08093D40266
:1039F0005AC080916E03802780936E0381EB92E022
:103A00000E94E1166ACF0E946D1870936C03609358
:103A10006B0377FD08C06F3F710519F014F06FEF6D
:103A200070E0862F01C080E08093D2023CC00E94EB
:103A30006D18862F653608F084E68093D3020E94C5
:103A4000CE1661E08091D3020E94C61246CF81EB70
:103A500092E00E94E11681E09091D102911180E004
:103A60008093D1023ACF0E946D1870936C036093DB
:103A70006B0377FD08C06F3F710519F014F06FEF0D
:103A800070E0862F01C080E0809302020CC060913C
:103A9000D30282E090E00E94BC1E86EB92E00E947E
:103AA0007B168091D3020E94CE1617CF80917703A8
:103AB000811119C08090D402912CA12CB12C0E94AC
:103AC000141760936F037093700380937103909346
:103AD00072038092730390927403A0927503B09264
:103AE0007603F09277030E94141780906F039090F2
:103AF0007003A0907103B0907203DC01CB018819B0
:103B00009909AA09BB098090730390907403A0904F
:103B10007503B090760388159905AA05BB05E0F0FA
:103B20000E94141760936F03709370038093710366
:103B3000909372038091D40290E0A0E0B0E0809373
:103B4000730390937403A0937503B093760360E0BE
:103B50008091D3020E94C61280916E03882309F4DB
:103B600071C00E9456118A3008F06CC019831A8304
:103B70001B830E9456119DEE899FB00111248CE099
:103B800092E10E948B06BE016F5F7F4F0E94CE15AF
:103B900019831A831B830E9456112DEE829FB00158
:103BA00011248BE39FE00E948B06BE016F5F7F4F65
:103BB0000E94CE1519831A831B830E94561197EE1B
:103BC000899FB00111248CE79CE00E948B06BE0106
:103BD0006F5F7F4F0E94CE1519831A831B830E944B
:103BE00056112BEE829FB001112481EB99E00E94C7
:103BF0008B06BE016F5F7F4F0E94CE1519831A831B
:103C00001B830E9456119CEE899FB001112483EE04
:103C100096E00E948B06BE016F5F7F4F0E94CE151B
:103C200019831A831B830E94561127EE829FB001CD
:103C3000112484E294E00E948B06BE016F5F7F4FE7
:103C40000E94CE158091DD140E9420170E94531906
:103C500044CEE7E8F3E01382128288EE93E0A0E01E
:103C6000B0E084839583A683B7838DE892E0918347
:103C7000808385EC90E09587848784EC90E097873B
:103C8000868780EC90E0918B808B81EC90E0938B29
:103C9000828B82EC90E0958B848B86EC90E0978B06
:103CA000868B118E128E138E148EECE0F2E181E081
:103CB00080832EEE30E03283218343E152E154834E
:103CC00043834DED54E156834583EBE3FFE080836E
:103CD0003283218322E43FE0348323832CE032E1EA
:103CE00036832583ECE7FCE0808328EE30E03283E6
:103CF000218343E85CE0548343834BE35FE05683D6
:103D00004583E1EBF9E080834CEE50E05283418340
:103D100048EB59E0548343834CE75CE0568345838A
:103D2000E3EEF6E080834DEE50E0528341834AEEAD
:103D300056E05483438341EB59E056834583E4E2E4
:103D4000F4E08083328321838BE294E09483838345
:103D500083EE96E096838583EDEDF4E18FEF80832B
:103D600012821182148613868FEF9FEFDC01878306
:103D70009087A187B2870895262FF999FECF1FBAA1
:103D800092BD81BD20BD0FB6F894FA9AF99A0FBE84
:103D9000019608950E94D51EA59F900DB49F900D89
:103DA000A49F800D911D11240895A29FB001B39F7F
:103DB000C001A39F700D811D1124911DB29F700D34
:103DC000811D1124911D0895DB018F939F930E9403
:103DD000CA1EBF91AF91A29F800D911DA39F900D10
:103DE000B29F900D1124089597FB072E16F40094AE
:103DF00007D077FD09D00E94581F07FC05D03EF47C
:103E0000909581959F4F0895709561957F4F089586
:103E1000A1E21A2EAA1BBB1BFD010DC0AA1FBB1FCE
:103E2000EE1FFF1FA217B307E407F50720F0A21B40
:103E3000B30BE40BF50B661F771F881F991F1A94AD
:103E400069F760957095809590959B01AC01BD01D7
:103E5000CF010895052E97FB1EF400940E94411F88
:103E600057FD07D00E94081F07FC03D04EF40C94A6
:103E7000411F50954095309521953F4F4F4F5F4FD3
:103E8000089590958095709561957F4F8F4F9F4FC6
:103E90000895EE0FFF1F881F8BBF0790F691E02D4E
:103EA00019940E94D51EB7FF0895821B930B0895A5
:103EB000AA1BBB1B51E107C0AA1FBB1FA617B70750
:103EC00010F0A61BB70B881F991F5A95A9F780956C
:103ED0009095BC01CD01089581E090E0F8940C9498
:063EE000711FF894FFCFF2
:103EE6003905FFFFFF00000000E3052606A306696B
:103EF600108C10A006A70600000000E3052606A504
:103F06000669108C10A006F00800000000E30526E4
:103F160006390B69108C10A0063D0B00000000E36B
:103F26000526063B0B69108C10A006860D000000C6
:103F360000E3052606090169108C10A0061501008C
:103F4600000000E30526060F0169108C10A0067C10
:103F560003003131295A1B750A00000000071007BB
:103F660010071069108C10041100000000AE19CF64
:103F76000F1619FB194719251939192D2D2D5345DA
:103F860054555020434F4D504C4554452D2D2D0032
:103F96002320000D0A0057726974696E67206B65ED
:103FA60079626F6172643A20004D6F64653A200051
:00000001FF
