:100000000C94AA020C94DB020C94DB020C94DB022D
:100010000C94DB020C94DB020C94DB020C94DB02EC
:100020000C94DB020C94DB020C94DB020C94DB02DC
:100030000C94DB020C94DB020C94DB020C94DB02CC
:100040000C94DB020C94DB020C94DB020C94DB02BC
:100050000C94DB020C94DB020C94DB020C94291E42
:100060000C94DB020C949B1D0C94711D0C94DB0210
:100070000C94DB020C94DB020C94DB020C94DB028C
:100080000C94DB020C94DB020C94DB020C94DB027C
:100090000C94DB020C94DB020C94DB020C94DB026C
:1000A0000C94DB020C94DB020C94DB020C94DB025C
:1000B0000C94DB020C94DB020C94DB020C94DB024C
:1000C0000C94DB020C94DB020C94DB020C94DB023C
:1000D0000C94DB020C94DB020C94DB020C94DB022C
:1000E0000C94DB02A420CD20D920E220FA20162196
:1000F00085219021A421762076207620322242226A
:1001000076204E2276207620552264227620762094
:1001100075220C94FA200C9416210C9443150C941F
:10012000CD200C9402090C944E220C94FC080C94E3
:1001300064220C94911C0C9475220C94C91C0C9490
:100140006F1C0C94D60D0C9490210C9404030C9409
:10015000601C0C94F8120C94600E0C94A4200C9467
:10016000D9200C94AD100C945D0E0C94321C0C94A0
:1001700085210C942D230C9476200C9400030C9470
:10018000A4210C9408090C9442220C94E2200C94B3
:10019000F6120C94831C0C94DD020C94FA120C944D
:1001A0001A0E0C9432220C94161D0C94640E0C94AE
:1001B000620E0C94FA080C946F0B0C9455220000FC
:1001C00000FF3F0037FF7F00FFFFBF2AFF2DFFFF2B
:1001D000FF00000000002A2A000054FF00007FFFFB
:1001E000002DAAFF00FFD4FF372DFFFFFF00000006
:1001F00000003F2A002D7FFF00FFBFFF002DFFFF03
:100200000000000000002A00002D540000FF7F2A9B
:1002100000FFAAFF00FFD4FF37FFFFFFFFFF001A18
:1002200001013343040154760E01688998347071DA
:1002300041017A85953B7C899834877141018E8B89
:100240009A2EA3710D01CC370301F9110101FF11A1
:10025000010100130227191A042D332106344C44DE
:100260003E7D6676BBF06DA3D7F772D9F4FF7A9F17
:1002700095DD95714EBCB780399BFF92287B004776
:100280001B271F820B333FD5024046E801424CFC3E
:1002900001456C7B0233FF2E0923000A5505191D09
:1002A0006D123C3B8A2A5D5363346A6E42406D7B1B
:1002B0003141718B234274C075627CFFFF89A86451
:1002C000B49BFF1679AE000101004C20050092C0DE
:1002D0001800C5DC6905F0FCFF1FFAFCFF6FFFFF8B
:1002E000FFFF000000002E120000607100006C8E05
:1002F000030177AF110192D52C02AEFF5204BCFF6F
:100300007304CAFF9C04DAFFCB04EAFFFF04F4FF86
:10031000FF47FFFFFFFF0061FF01652F8501B20D61
:100320002B01FF020A01002B03993F6404677FBC85
:100330000542BFA10B73FF8714B600715B93489D04
:10034000584E59D055216BFF1D0B8D891F27FF3B40
:100350002159000201013512010068451D0199A7CC
:10036000870AFF2E380400C201015E011D12843984
:10037000831CFF710101002F1E022AD593185467B8
:10038000DB347F03DBCFAA0130D6D401016FFF013C
:10039000072100017C6D42015D4F68344101827389
:1003A0007F0196344101C9015648EF00372DFF0007
:1003B000372D00F7B0F730FF88FF59DC1DE2A007AA
:1003C00052B2D8017C6DFF017C6D00FF21042BFF30
:1003D000441956FF07197FFF5267AAFFFFF2D12A7F
:1003E000FF16FF57FF41000105001320170126A14A
:1003F00037013FE5900142278E4AFF0104010000CA
:100400000000250219014C0F73057F4FD501807E36
:10041000D32F82BCD1F79990B6CDCC3B75FAFF01B2
:1004200025C0000803002A1707003F4B260654A9E1
:1004300063266AD5A97774FFFFFF8A87FF8A94161F
:10044000FF18AA00FF00BF008800D4003700FF009B
:10045000370000040101331000014C61680365FF9F
:1004600083137F43090499100001E5040101FF048F
:10047000010100E501013DF2043F65FF0CFF7FF93A
:1004800051FC99FF0BEBC1F40544FFE80105006442
:100490009C99330163896501445468238EA8B20096
:1004A0003F75FF010A0A0028C7C5320A989B600100
:1004B0006F78602B7FA28B0A496FFF012247007E75
:1004C0000BFF7FC50116AFD29DACDD9D0370FF9D74
:1004D0000370000300FF3F1700FF7F4300FFBF8E44
:1004E000002DFFFF000000BC8701FF2E0701000464
:1004F000011F1F3701103FC503075F3B02117F0635
:1005000002229F270621BF700D20DF380923FF1626
:100510000626000106075901636F9990D1FFFF007D
:10052000495200010E056510240EA538441EF296AE
:100530009C63FF969C630078000016B3160033FF9F
:10054000680055A7161287640067C6100082FF0076
:1005500000A02D2311241FBECFEFD1E2DEBFCDBFFF
:1005600000E00CBF27E0A4E1B3E001C01D92AF386A
:10057000B207E1F713E0A0E0B2E0E0E6F8E400E063
:100580000BBF02C007900D92A431B107D9F712E05A
:10059000CAEAD2E000E006C021970109802FFE01DF
:1005A0000E940624C93AD10780E00807A9F70E94F3
:1005B000731E0C942E240C940000CF93DF9300D074
:1005C00000D0CDB7DEB7AB011C821D821E82DC01DC
:1005D000ED91FC910190F081E02D19821A821B822D
:1005E0009E012F5F3F4FBE016C5F7F4F199526968E
:1005F0000FB6F894DEBF0FBECDBFDF91CF91089547
:10060000FC0185859685089580E090E00895FC01C1
:1006100082E192E091838083138212828FEF86833E
:100620008783808781878287838781E08487168696
:100630001586158214828091000490910104892B03
:1006400021F4F0930104E0930004A0911403B0910D
:100650001503109721F01596FC93EE931497F093E1
:100660001503E09314030895482F982F46FD9095A5
:10067000E92FEF739F7046FD9F5FE695E695E6953F
:10068000E670F0E0EA5FFD4F2181299F802D212D4A
:10069000112482958F702295207F822B3081982F94
:1006A000930F892F47FD819580580895609104022A
:1006B0007091050245E058E0649F9001659F300D00
:1006C000749F300D1124275E394C3093050220931E
:1006D0000402230F289FC0011124892F08951F931E
:1006E000DC01FB017C9111964C91119712961C91A3
:1006F000972F9F71990F990F990F35E5292F239FF8
:10070000020E20E0211D1124822F672F6074572FC5
:10071000507277FD1FC061110AC0511103C0922FA2
:10072000909511C025E5280F90E08BEA34C0511157
:100730000DC0392F2AEA329F030E30E0311D1124FB
:100740009BEA931B280F892F90E025C090E020950D
:10075000982F0FC0611112C051110DC0392F2AEA14
:10076000329F030E30E0311D11242BEA231B95E547
:10077000930F80E010C0922F90950CC0511104C0CF
:1007800025E5280F9BEA04C02AEA280F90E0932F62
:10079000981B822F20E04F3F09F427C0442311F11A
:1007A000882331F0382F349F030E30E0311D832F22
:1007B000222321F0249F020E20E0211D992331F0F5
:1007C000392F349F030E30E0311D932F1124342F25
:1007D0003095339F030E30E0311D1124830F230F1A
:1007E000930F03C09FEF2FEF8FEF1F3F09F424C03B
:1007F00030E0112321F0119F312D09F03F5F3323A9
:10080000C1F0882331F0482F439F040E40E0411D82
:10081000842F222321F0239F020E20E0211D992303
:1008200031F0492F439F040E40E0411D942F1124C5
:1008300003C090E020E080E08083218392831F91B9
:1008400008955F926F927F928F929F92AF92BF9224
:10085000CF92DF92EF92FF920F931F93CF93DF938C
:10086000CDB7DEB72D970FB6F894DEBF0FBECDBF64
:100870001FEF10930002809118038F5F809318037D
:10088000888719871A87BE01655F7F4FCE0108965A
:100890000E946F038FE9E82E84E0F82EF701838130
:1008A000948101E009832AE3822E912C9B828A8223
:1008B0009D838C8382559F4F9F838E83BE01655F8E
:1008C0007F4FCE0101960E941619809118038C5E0D
:1008D000888719871A87BE01655F7F4FCE0108960A
:1008E0000E946F03F7018381948109833CE3A32E67
:1008F000B12CBB82AA829C0122553F4F3D832C83A1
:100900008E599E4F9F838E83BE01655F7F4FCE01C0
:1009100001960E94161980911803885D88871987AF
:100920001A87BE01655F7F4FCE0108960E946F0354
:10093000F7018381948109834DE3C42ED12CDB829E
:10094000CA829C012E593E4F3D832C83875E9D4F6A
:100950009F838E83BE01655F7F4FCE0101960E940B
:10096000161980911803845C888719871A87BE013D
:10097000655F7F4FCE0108960E946F03F701838168
:1009800094810983DB82CA829C012A5E3D4F3D83AC
:100990002C8383539D4F9F838E83BE01655F7F4F62
:1009A000CE0101960E94161980E090E00E94031883
:1009B0006FEF0E948C1788E2888719871A87BE011B
:1009C000655F7F4FCE0108960E946F03F701838118
:1009D000948109839B828A829D838C8382559F4F59
:1009E0009F838E83BE01655F7F4FCE0101960E947B
:1009F000161982E3888719871A87BE01655F7F4FC2
:100A0000CE0108960E946F03F701838194810983C8
:100A1000BB82AA829C0122553F4F3D832C838E5975
:100A20009E4F9F838E83BE01655F7F4FCE010196EF
:100A30000E9416198CE3888719871A87BE01655FA3
:100A40007F4FCE0108960E946F03F7018381948146
:100A50000983DB82CA829C012E593E4F3D832C8341
:100A6000875E9D4F9F838E83BE01655F7F4FCE0162
:100A700001960E94161986E4888719871A87BE0195
:100A8000655F7F4FCE0108960E946F03F701838157
:100A900094810983DB82CA829C012A5E3D4F3D839B
:100AA0002C8383539D4F9F838E83BE01655F7F4F51
:100AB000CE0101960E9416197090000281E090E02C
:100AC0000E940318672D0E948C1780E5888719877C
:100AD0001A87BE01655F7F4FCE0108960E946F03A3
:100AE000F7018381948109839B828A829D838C8311
:100AF00082559F4F9F838E83BE01655F7F4FCE01DE
:100B000001960E9416198AE5888719871A87BE01FF
:100B1000655F7F4FCE0108960E946F03F7018381C6
:100B200094810983BB82AA829C0122553F4F3D8359
:100B30002C838E599E4F9F838E83BE01655F7F4FAE
:100B4000CE0101960E94161984E6888719871A87B4
:100B5000BE01655F7F4FCE0108960E946F03F701CB
:100B6000838194810983DB82CA829C012E593E4F86
:100B70003D832C83875E9D4F9F838E83BE01655F7F
:100B80007F4FCE0101960E9416198EE6888719873D
:100B90001A87BE01655F7F4FCE0108960E946F03E2
:100BA000F70183819481098357E3652E712C7B8241
:100BB0006A829C012A5E3D4F3D832C8385549D4F64
:100BC0009F838E83BE01655F7F4FCE0101960E9499
:100BD00016195090000282E090E00E940318652DE3
:100BE0000E948C1788E7888719871A87BE01655F7E
:100BF0007F4FCE0108960E946F03F7018381948195
:100C000009839B828A829D838C8382559F4F9F8319
:100C10008E83BE01655F7F4FCE0101960E9416193B
:100C200082E8888719871A87BE01655F7F4FCE01EA
:100C300008960E946F03F701838194810983BB8228
:100C4000AA829C0122553F4F3D832C838E599E4F93
:100C50009F838E83BE01655F7F4FCE0101960E9408
:100C600016198CE8888719871A87BE01655F7F4F40
:100C7000CE0108960E946F03F70183819481098356
:100C8000DB82CA829C012E593E4F3D832C83875EB6
:100C90009D4F9F838E83BE01655F7F4FCE0101967E
:100CA0000E94161986E9888719871A87BE01655F31
:100CB0007F4FCE0108960E946F03F70183819481D4
:100CC00009832BE330E03B832A839C012A5E3D4F5E
:100CD0003D832C8389539D4F9F838E83BE01655F27
:100CE0007F4FCE0101960E9416195090000283E0BA
:100CF00090E00E940318652D0E948C1780EA888777
:100D000019871A87BE01655F7F4FCE0108960E9442
:100D10006F03F7018381948109839B828A829D837B
:100D20008C8382559F4F9F838E83BE01655F7F4F6B
:100D3000CE0101960E9416198AEA888719871A87B8
:100D4000BE01655F7F4FCE0108960E946F03F701D9
:100D5000838194810983BB82AA829C0122553F4FE3
:100D60003D832C838E599E4F9F838E83BE01655F8A
:100D70007F4FCE0101960E94161984EB8887198750
:100D80001A87BE01655F7F4FCE0108960E946F03F0
:100D9000F701838194810983DB82CA829C012E59E9
:100DA0003E4F3D832C83875E9D4F9F838E83BE0184
:100DB000655F7F4FCE0101960E9416198EEB8887E2
:100DC00019871A87BE01655F7F4FCE0108960E9482
:100DD0006F03F701838194810983BB82AA829C01FE
:100DE0002A5E3D4F3D832C8386539D4F9F838E8388
:100DF000BE01655F7F4FCE0101960E94161950908B
:100E0000000284E090E00E940318652D0E948C1778
:100E100088EC888719871A87BE01655F7F4FCE01EE
:100E200008960E946F03F7018381948109839B8256
:100E30008A829D838C8382559F4F9F838E83BE01C0
:100E4000655F7F4FCE0101960E94161982ED88875B
:100E500019871A87BE01655F7F4FCE0108960E94F1
:100E60006F03F701838194810983BB82AA829C016D
:100E700022553F4F3D832C838E599E4F9F838E83F7
:100E8000BE01655F7F4FCE0101960E9416198CED61
:100E9000888719871A87BE01655F7F4FCE01089644
:100EA0000E946F03F701838194810983DB82CA82E8
:100EB0009C012E593E4F3D832C83875E9D4F9F831F
:100EC0008E83BE01655F7F4FCE0101960E94161989
:100ED00086EE888719871A87BE01655F7F4FCE012E
:100EE00008960E946F03F7018381948109837B82B6
:100EF0006A829C012A5E3D4F3D832C8385549D4F21
:100F00009F838E83BE01655F7F4FCE0101960E9455
:100F100016191091000285E090E00E940318612FDD
:100F20000E948C172D960FB6F894DEBF0FBECDBF72
:100F3000DF91CF911F910F91FF90EF90DF90CF90B5
:100F4000BF90AF909F908F907F906F905F9008952B
:100F5000DA01FC0180E090E0861797076CF42C9191
:100F6000208311962C911197218312962C91129720
:100F7000228301963396F0CF0895CF92DF92FF92AD
:100F80000F931F93CF93DF9300D0CDB7DEB7182F09
:100F90006623C9F1823009F43FC019821A821B828C
:100FA000AE014F5F5F4F60EF70E08091A2049091BF
:100FB000A3040E94A8078EED92E00E941B1A809164
:100FC00019030E946E1A8091A6040E94F21A113031
:100FD00009F4F6C0A0F0133009F4C2C0143009F0CF
:100FE000FEC010921B0310921A0381E08093170336
:100FF00082E08093020283E080930102B4C01982F0
:101000001A821B82E1C0833009F4AAC0843009F43B
:10101000AAC0823009F0E3C09091170380910002CA
:10102000911102C08B5F03C0913019F485508093F9
:101030000002009100020A3F20F081E08093170334
:1010400004C0063010F41092170319821A821FEFA1
:101050001B83AE014F5F5F4F6EEE70E08091A20484
:101060009091A3040E94A80780E090E00E940318DA
:10107000602F0E948C17198200E80A831B82AE0140
:101080004F5F5F4F6EEE70E08091A2049091A304D9
:101090000E94A807F090000281E090E00E940318EF
:1010A0006F2D0E948C1719831A821B82AE014F5F2D
:1010B0005F4F68EE70E08091A2049091A3040E94BB
:1010C000A807F090000282E090E00E9403186F2DC4
:1010D0000E948C1719821A821B83AE014F5F5F4FEB
:1010E0006CEE70E08091A2049091A3040E94A80786
:1010F000F090000283E090E00E9403186F2D0E94A0
:101100008C1719820A831B82AE014F5F5F4F6DEE11
:1011100070E08091A2049091A3040E94A80700911E
:10112000000284E090E00E940318602F0E948C1758
:1011300019831A821B82AE014F5F5F4F68EE70E029
:101140008091A2049091A3040E94A807109100022C
:1011500085E090E00E940318612F0E948C173FC029
:101160000E9421043CC020911703809116039091A6
:101170000202211102C0890F01C0891B809316034E
:10118000F0900102C090A204D090A30480911603B5
:1011900089838FEF8B8380EF8A8300E010E0B601B4
:1011A000600F711FCE0101960E946F0389818F0D20
:1011B00089830D5F1F4F003D82E0180781F70FC044
:1011C0008FEF89838A838B83AE014F5F5F4F60EF20
:1011D00070E08091A2049091A3040E94A8070F9050
:1011E0000F900F90DF91CF911F910F91FF90DF90A3
:1011F000CF9008950E942924E1E0F1E08081886089
:1012000080830895E1E0F1E080818061808308952A
:101210006F927F928F929F92AF92BF92CF92DF9206
:10122000EF92FF920F931F93CF93DF93EB010F96F3
:101230003C010E941A1EF894E881F9815091020144
:10124000586040910201477F40930201EA848F81F8
:101250002E2D281B822F2F83DF84AA81BB816D85D1
:101260007C85FE846F5F7F5FF3949E813885B984AF
:10127000AB84118120E0C32E022F322F3181112740
:1012800088943111380F08F43FEF8195889460FD00
:10129000130F1795889461FD130F1795889462FDBD
:1012A000130F1795889463FD130F1795889464FDA9
:1012B000130F1795889465FD130F1795889466FD95
:1012C000130F1795889467FD130F17958894232F94
:1012D0006111212F8E0D122F002C50930201002C32
:1012E00017FF4093020130812227889400C000C07C
:1012F000409302013111390F00C050930201002CBC
:1013000016FF4093020108F43FEF9195889400C0C6
:1013100000C04093020170FD230F00C050930201F2
:10132000002C15FF409302012795889471FD230F2F
:1013300000C000C0409302012795889400C05093DC
:101340000201002C14FF4093020172FD230F279528
:10135000889400C000C04093020173FD230F00C0B9
:1013600050930201002C13FF4093020127958894AB
:1013700074FD230F00C000C040930201279588949C
:1013800000C050930201002C12FF4093020175FD32
:10139000230F2795889400C000C04093020176FD7A
:1013A000230F00C050930201002C11FF4093020153
:1013B0002795889477FD230F00C000C04093020159
:1013C0002795889400C050930201002C10FF409391
:1013D0000201132F7111122F9B0D00C000C040930A
:1013E000020100C000C050930201002C17FF40937F
:1013F000020132812227889400C000C0409302017C
:1014000031113C0D00C050930201002C16FF409397
:10141000020108F43FEFED0DF11D00C000C0409344
:101420000201F0FC230F00C050930201002C15FFB5
:101430004093020127958894F1FC230F00C000C05F
:10144000409302012795889400C050930201002C1C
:1014500014FF40930201F2FC230F2795889400C0EB
:1014600000C040930201F3FC230F00C0509302011F
:10147000002C13FF4093020127958894F4FC230F5E
:1014800000C000C0409302012795889400C050938B
:101490000201002C12FF40930201F5FC230F279557
:1014A000889400C000C040930201F6FC230F00C0E6
:1014B00050930201002C11FF40930201279588945C
:1014C000F7FC230F00C000C04093020127958894C9
:1014D00000C050930201002C10FF40930201132F13
:1014E000F110122FC19400C000C040930201CA0C39
:1014F00000C0002C50930201002C17FF4093020102
:1015000031812227889400C000C04093020131112C
:10151000380F00C050930201002C16FF40930201C7
:1015200008F43FEF8195889400C000C04093020109
:1015300060FD230F00C050930201002C15FF409363
:1015400002012795889461FD230F00C000C04093DD
:1015500002012795889400C050930201002C14FFCB
:101560004093020162FD230F2795889400C000C0BC
:101570004093020163FD230F00C050930201002C31
:1015800013FF409302012795889464FD230F00C048
:1015900000C0409302012795889400C05093020137
:1015A000002C12FF4093020165FD230F27958894BC
:1015B00000C000C04093020166FD230F00C050939D
:1015C0000201002C11FF409302012795889467FDCA
:1015D000230F00C000C0409302012795889400C0EB
:1015E00050930201002C10FF40930201132F611150
:1015F000122F8E0D00C000C040930201119709F018
:101600006CCE4A815B8120EE31E0DA010E940E242B
:10161000DC01CB01F4E0B695A79597958795FA95EF
:10162000D1F720E030E0B901EAE94E9F040E611DD8
:101630005E9F600D711D1124650F711D860F971F30
:10164000A11DB11D893E43E09407A105B10508F431
:1016500034C0885E9340A109B10942E0B695A795D0
:10166000979587954A95D1F747E0849F080E211DED
:10167000949F200D311D1124290F311D6091C70346
:1016800070E0860F971F820F931F4091C8035091FF
:10169000C9036091CA037091CB03292F3327420FEE
:1016A000531F611D711D4093C8035093C90360937C
:1016B000CA037093CB038093C7037894C301DF916F
:1016C000CF911F910F91FF90EF90DF90CF90BF903F
:1016D000AF909F908F907F906F900C94101E6F92A0
:1016E0007F928F929F92AF92BF92CF92DF92EF92B2
:1016F000FF920F931F93CF93DF93EB010F963C0163
:101700000E941A1EF894E881F981509102015061FB
:10171000409102014F7E40930201EA848F812E2D79
:10172000281B822F2F83DF84AA81BB816D857C8556
:10173000FE846F5F7F5FF3949E813885B984AB84AC
:10174000118120E0C32E022F322F3181112788947E
:101750003111380F08F43FEF8195889460FD130F25
:101760001795889461FD130F1795889462FD130FE8
:101770001795889463FD130F1795889464FD130FD4
:101780001795889465FD130F1795889466FD130FC0
:101790001795889467FD130F17958894232F61116F
:1017A000212F8E0D122F002C50930201002C17FFB9
:1017B0004093020130812227889400C000C04093EA
:1017C00002013111390F00C050930201002C16FFA5
:1017D0004093020108F43FEF9195889400C000C047
:1017E0004093020170FD230F00C050930201002CB2
:1017F00015FF409302012795889471FD230F00C0C7
:1018000000C0409302012795889400C050930201C4
:10181000002C14FF4093020172FD230F279588943A
:1018200000C000C04093020173FD230F00C050931D
:101830000201002C13FF409302012795889474FD48
:10184000230F00C000C0409302012795889400C078
:1018500050930201002C12FF4093020175FD230FEB
:101860002795889400C000C04093020176FD230FA5
:1018700000C050930201002C11FF409302012795F4
:10188000889477FD230F00C000C040930201279584
:10189000889400C050930201002C10FF4093020175
:1018A000132F7111122F9B0D00C000C04093020135
:1018B00000C000C050930201002C17FF40930201AA
:1018C00032812227889400C000C040930201311168
:1018D0003C0D00C050930201002C16FF4093020102
:1018E00008F43FEFED0DF11D00C000C04093020170
:1018F000F0FC230F00C050930201002C15FF409311
:10190000020127958894F1FC230F00C000C040938A
:1019100002012795889400C050930201002C14FF07
:1019200040930201F2FC230F2795889400C000C069
:1019300040930201F3FC230F00C050930201002CDE
:1019400013FF4093020127958894F4FC230F00C0F5
:1019500000C0409302012795889400C05093020173
:10196000002C12FF40930201F5FC230F2795889469
:1019700000C000C040930201F6FC230F00C050934A
:101980000201002C11FF4093020127958894F7FC77
:10199000230F00C000C0409302012795889400C027
:1019A00050930201002C10FF40930201132FF110FD
:1019B000122FC19400C000C040930201CA0C00C0A5
:1019C000002C50930201002C17FF4093020131813B
:1019D0002227889400C000C0409302013111380FC3
:1019E00000C050930201002C16FF4093020108F43E
:1019F0003FEF8195889400C000C04093020160FDD4
:101A0000230F00C050930201002C15FF40930201E8
:101A10002795889461FD230F00C000C04093020108
:101A20002795889400C050930201002C14FF409326
:101A3000020162FD230F2795889400C000C04093E7
:101A4000020163FD230F00C050930201002C13FF1D
:101A5000409302012795889464FD230F00C000C0C5
:101A6000409302012795889400C050930201002CF6
:101A700012FF4093020165FD230F2795889400C053
:101A800000C04093020166FD230F00C05093020185
:101A9000002C11FF409302012795889467FD230FC6
:101AA00000C000C0409302012795889400C0509365
:101AB0000201002C10FF40930201132F6111122F1D
:101AC0008E0D00C000C040930201119709F06CCE4A
:101AD0004A815B8120EE31E0DA010E940E24DC01B4
:101AE000CB01F4E0B695A79597958795FA95D1F730
:101AF00020E030E0B901EAE94E9F040E611D5E9FCF
:101B0000600D711D1124650F711D860F971FA11D9A
:101B1000B11D893E43E09407A105B10508F434C026
:101B2000885E9340A109B10942E0B695A7959795C3
:101B300087954A95D1F747E0849F080E211D949F11
:101B4000200D311D1124290F311D6091C70370E054
:101B5000860F971F820F931F4091C8035091C903AE
:101B60006091CA037091CB03292F3327420F531F73
:101B7000611D711D4093C8035093C9036093CA034C
:101B80007093CB038093C7037894C301DF91CF9107
:101B90001F910F91FF90EF90DF90CF90BF90AF908B
:101BA0009F908F907F906F900C94101E0F931F93B7
:101BB000CF93DF93CDB7DEB762970FB6F894DEBF51
:101BC0000FBECDBF8C01F901DC011C968C917A838C
:101BD00069835C834B835E834D8390819D87918174
:101BE0009E8792819F87813029F4CE0101960E94C1
:101BF000D11D06C01C861B861A86198618861F8270
:101C000083E0888B1A8A198AD801ED91FC910484AB
:101C1000F585E02DBE016F5F7F4FC8011995629673
:101C20000FB6F894DEBF0FBECDBFDF91CF911F91ED
:101C30000F9108950F931F93CF93DF93CDB7DEB726
:101C400062970FB6F894DEBF0FBECDBF8C01F901CD
:101C5000DC011C968C917A8369835C834B835E8361
:101C60004D8390819D8791819E8792819F8781304E
:101C700029F4CE0101960E94D11D06C01C861B8648
:101C80001A86198618861F82188A1A8A198AD80114
:101C9000ED91FC910484F585E02DBE016F5F7F4FCF
:101CA000C801199562960FB6F894DEBF0FBECDBF7E
:101CB000DF91CF911F910F91089580E991E00895F0
:101CC0006C9A08956D9A08954F925F926F927F92E9
:101CD0008F92AF92BF92CF92DF92EF920F931F93AA
:101CE000CF93DF93EB010F962C010E941A1EF894FC
:101CF000E881F9817EB170616EB16F7E6EB9CA8480
:101D00008F812C2D281B822F2F83BF846A807B809C
:101D10001D850C85DE841F5F0F5FD3949E813885FF
:101D2000A984EB844181D30120E0C32F522F322FAD
:101D30003181442788943111380F08F43FEF8195A1
:101D4000889410FD430F4795889411FD430F4795E4
:101D5000889412FD430F4795889413FD430F4795D0
:101D6000889414FD430F4795889415FD430F4795BC
:101D7000889416FD430F4795889417FD430F4795A8
:101D80008894232F1111242F8C0D422F002C7EB903
:101D900000C047FF6EB930812227889400C000C080
:101DA000002C6EB93111390F00C0002C7EB900C073
:101DB00046FF6EB908F43FEF9195889400C000C0CB
:101DC000002C6EB900FD230F00C0002C7EB900C0AE
:101DD00045FF6EB92795889401FD230F00C000C010
:101DE000002C6EB92795889400C0002C7EB900C0E5
:101DF00044FF6EB902FD230F2795889400C000C0F0
:101E0000002C6EB903FD230F00C0002C7EB900C06A
:101E100043FF6EB92795889404FD230F00C000C0CE
:101E2000002C6EB92795889400C0002C7EB900C0A4
:101E300042FF6EB905FD230F2795889400C000C0AE
:101E4000002C6EB906FD230F00C0002C7EB900C027
:101E500041FF6EB92795889407FD230F00C000C08D
:101E6000002C6EB92795889400C0002C7EB900C064
:101E700040FF6EB9432F0111422F9A0D00C000C0E0
:101E8000002C6EB900C000C0002C7EB900C047FF16
:101E90006EB932812227889400C000C0002C6EB930
:101EA00031113C0F00C0002C7EB900C046FF6EB956
:101EB00008F43FEFEB0DF11D00C000C0002C6EB91F
:101EC000D0FC230F00C0002C7EB900C045FF6EB9C6
:101ED00027958894D1FC230F00C000C0002C6EB958
:101EE0002795889400C0002C7EB900C044FF6EB9CD
:101EF000D2FC230F2795889400C000C0002C6EB937
:101F0000D3FC230F00C0002C7EB900C043FF6EB984
:101F100027958894D4FC230F00C000C0002C6EB914
:101F20002795889400C0002C7EB900C042FF6EB98E
:101F3000D5FC230F2795889400C000C0002C6EB9F3
:101F4000D6FC230F00C0002C7EB900C041FF6EB943
:101F500027958894D7FC230F00C000C0002C6EB9D1
:101F60002795889400C0002C7EB900C040FF6EB950
:101F7000432FD110422FC19500C000C0002C6EB974
:101F8000CE0D00C000C07EB900C047FF6EB93181E0
:101F90002227889400C000C0002C6EB93111380F80
:101FA00000C0002C7EB900C046FF6EB908F43FEFB8
:101FB0008195889400C000C0002C6EB910FD230FDD
:101FC00000C0002C7EB900C045FF6EB927958894EB
:101FD00011FD230F00C000C0002C6EB92795889416
:101FE00000C0002C7EB900C044FF6EB912FD230F63
:101FF0002795889400C000C0002C6EB913FD230FF4
:1020000000C0002C7EB900C043FF6EB927958894AC
:1020100014FD230F00C000C0002C6EB927958894D2
:1020200000C0002C7EB900C042FF6EB915FD230F21
:102030002795889400C000C0002C6EB916FD230FB0
:1020400000C0002C7EB900C041FF6EB9279588946E
:1020500017FD230F00C000C0002C6EB9279588948F
:1020600000C0002C7EB900C040FF6EB9432F111193
:10207000422F8C0D00C000C0002C6EB9119709F0E2
:1020800086CE20EE31E0D3010E940E24DC01CB018C
:10209000F4E0B695A79597958795FA95D1F720E046
:1020A00030E0B901EAE96E9E060C611D7E9E600D6E
:1020B000711D1124670D711D860F971FA11DB11D84
:1020C000893E43E09407A105B10508F434C0885E59
:1020D0009340A109B10942E0B695A79597958795D8
:1020E0004A95D1F747E0849F080E211D949F200D4B
:1020F000311D1124290F311D6091C70370E0860F37
:10210000971F820F931F4091C8035091C90360919C
:10211000CA037091CB03292F3327420F531F611D30
:10212000711D4093C8035093C9036093CA03709311
:10213000CB038093C7037894C201DF91CF911F91A5
:102140000F91EF90DF90CF90BF90AF908F907F90E6
:102150006F905F904F900C94101E4F925F926F9211
:102160007F928F92AF92BF92CF92DF92EF920F93B6
:102170001F93CF93DF93EB010F962C010E941A1E41
:10218000F894E881F9817EB170626EB16F7D6EB9AD
:10219000CA848F812C2D281B822F2F83BF846A80B5
:1021A0007B801D850C85DE841F5F0F5FD3949E812D
:1021B0003885A984EB844181D30120E0C32F522FBD
:1021C000322F3181442788943111380F08F43FEFC2
:1021D0008195889410FD430F4795889411FD430F16
:1021E0004795889412FD430F4795889413FD430F3C
:1021F0004795889414FD430F4795889415FD430F28
:102200004795889416FD430F4795889417FD430F13
:1022100047958894232F1111242F8C0D422F002CC9
:102220007EB900C047FF6EB930812227889400C074
:1022300000C0002C6EB93111390F00C0002C7EB9DE
:1022400000C046FF6EB908F43FEF9195889400C036
:1022500000C0002C6EB900FD230F00C0002C7EB919
:1022600000C045FF6EB92795889401FD230F00C07B
:1022700000C0002C6EB92795889400C0002C7EB950
:1022800000C044FF6EB902FD230F2795889400C05B
:1022900000C0002C6EB903FD230F00C0002C7EB9D6
:1022A00000C043FF6EB92795889404FD230F00C03A
:1022B00000C0002C6EB92795889400C0002C7EB910
:1022C00000C042FF6EB905FD230F2795889400C01A
:1022D00000C0002C6EB906FD230F00C0002C7EB993
:1022E00000C041FF6EB92795889407FD230F00C0F9
:1022F00000C0002C6EB92795889400C0002C7EB9D0
:1023000000C040FF6EB9432F0111422F9A0D00C04B
:1023100000C0002C6EB900C000C0002C7EB900C007
:1023200047FF6EB932812227889400C000C0002C7C
:102330006EB931113C0F00C0002C7EB900C046FFC1
:102340006EB908F43FEFEB0DF11D00C000C0002C8A
:102350006EB9D0FC230F00C0002C7EB900C045FF31
:102360006EB927958894D1FC230F00C000C0002CC3
:102370006EB92795889400C0002C7EB900C044FF38
:102380006EB9D2FC230F2795889400C000C0002CA2
:102390006EB9D3FC230F00C0002C7EB900C043FFF0
:1023A0006EB927958894D4FC230F00C000C0002C80
:1023B0006EB92795889400C0002C7EB900C042FFFA
:1023C0006EB9D5FC230F2795889400C000C0002C5F
:1023D0006EB9D6FC230F00C0002C7EB900C041FFAF
:1023E0006EB927958894D7FC230F00C000C0002C3D
:1023F0006EB92795889400C0002C7EB900C040FFBC
:102400006EB9432FD110422FC19500C000C0002CDF
:102410006EB9CE0D00C000C07EB900C047FF6EB9D6
:1024200031812227889400C000C0002C6EB9311180
:10243000380F00C0002C7EB900C046FF6EB908F40A
:102440003FEF8195889400C000C0002C6EB910FD4C
:10245000230F00C0002C7EB900C045FF6EB9279540
:10246000889411FD230F00C000C0002C6EB9279581
:10247000889400C0002C7EB900C044FF6EB912FDE4
:10248000230F2795889400C000C0002C6EB913FD5F
:10249000230F00C0002C7EB900C043FF6EB9279502
:1024A000889414FD230F00C000C0002C6EB927953E
:1024B000889400C0002C7EB900C042FF6EB915FDA3
:1024C000230F2795889400C000C0002C6EB916FD1C
:1024D000230F00C0002C7EB900C041FF6EB92795C4
:1024E000889417FD230F00C000C0002C6EB92795FB
:1024F000889400C0002C7EB900C040FF6EB9432F05
:102500001111422F8C0D00C000C0002C6EB9119724
:1025100009F086CE20EE31E0D3010E940E24DC01CA
:10252000CB01F4E0B695A79597958795FA95D1F7E5
:1025300020E030E0B901EAE96E9E060C611D7E9E46
:10254000600D711D1124670D711D860F971FA11D50
:10255000B11D893E43E09407A105B10508F434C0DC
:10256000885E9340A109B10942E0B695A795979579
:1025700087954A95D1F747E0849F080E211D949FC7
:10258000200D311D1124290F311D6091C70370E00A
:10259000860F971F820F931F4091C8035091C90364
:1025A0006091CA037091CB03292F3327420F531F29
:1025B000611D711D4093C8035093C9036093CA0302
:1025C0007093CB038093C7037894C201DF91CF91BE
:1025D0001F910F91EF90DF90CF90BF90AF908F90B1
:1025E0007F906F905F904F900C94101E9D9A08956D
:1025F0006B9A08954F925F926F927F928F92AF92F3
:10260000BF92CF92DF92EF920F931F93CF93DF93FE
:10261000EB010F962C010E941A1EF894E881F981B3
:1026200074B3706264B36F7D64BBCA848F812C2DD8
:10263000281B822F2F83BF846A807B801D850C8599
:10264000DE841F5F0F5FD3949E813885A984EB845D
:102650004181D30120E0C32F522F322F31814427F3
:1026600088943111380F08F43FEF8195889410FD5C
:10267000430F4795889411FD430F4795889412FDA9
:10268000430F4795889413FD430F4795889414FD95
:10269000430F4795889415FD430F4795889416FD81
:1026A000430F4795889417FD430F47958894232F30
:1026B0001111242F8C0D422F002C74BB00C047FF3A
:1026C00064BB30812227889400C000C0002C64BB0A
:1026D0003111390F00C0002C74BB00C046FF64BB31
:1026E00008F43FEF9195889400C000C0002C64BBB3
:1026F00000FD230F00C0002C74BB00C045FF64BB6D
:102700002795889401FD230F00C000C0002C64BBF6
:102710002795889400C0002C74BB00C044FF64BBA4
:1027200002FD230F2795889400C000C0002C64BBD5
:1027300003FD230F00C0002C74BB00C043FF64BB2B
:102740002795889404FD230F00C000C0002C64BBB3
:102750002795889400C0002C74BB00C042FF64BB66
:1027600005FD230F2795889400C000C0002C64BB92
:1027700006FD230F00C0002C74BB00C041FF64BBEA
:102780002795889407FD230F00C000C0002C64BB70
:102790002795889400C0002C74BB00C040FF64BB28
:1027A000432F0111422F9A0D00C000C0002C64BBC2
:1027B00000C000C0002C74BB00C047FF64BB328166
:1027C0002227889400C000C0002C64BB31113C0F4C
:1027D00000C0002C74BB00C046FF64BB08F43FEF90
:1027E000EB0DF11D00C000C0002C64BBD0FC230F1A
:1027F00000C0002C74BB00C045FF64BB27958894C3
:10280000D1FC230F00C000C0002C64BB2795889426
:1028100000C0002C74BB00C044FF64BBD2FC230F7B
:102820002795889400C000C0002C64BBD3FC230F04
:1028300000C0002C74BB00C043FF64BB2795889484
:10284000D4FC230F00C000C0002C64BB27958894E3
:1028500000C0002C74BB00C042FF64BBD5FC230F3A
:102860002795889400C000C0002C64BBD6FC230FC1
:1028700000C0002C74BB00C041FF64BB2795889446
:10288000D7FC230F00C000C0002C64BB27958894A0
:1028900000C0002C74BB00C040FF64BB432FD110AC
:1028A000422FC19500C000C0002C64BBCE0D00C0FB
:1028B00000C074BB00C047FF64BB318122278894ED
:1028C00000C000C0002C64BB3111380F00C0002CC8
:1028D00074BB00C046FF64BB08F43FEF8195889449
:1028E00000C000C0002C64BB10FD230F00C0002CF2
:1028F00074BB00C045FF64BB2795889411FD230F6E
:1029000000C000C0002C64BB2795889400C0002C38
:1029100074BB00C044FF64BB12FD230F279588944D
:1029200000C000C0002C64BB13FD230F00C0002CAE
:1029300074BB00C043FF64BB2795889414FD230F2C
:1029400000C000C0002C64BB2795889400C0002CF8
:1029500074BB00C042FF64BB15FD230F279588940C
:1029600000C000C0002C64BB16FD230F00C0002C6B
:1029700074BB00C041FF64BB2795889417FD230FEB
:1029800000C000C0002C64BB2795889400C0002CB8
:1029900074BB00C040FF64BB432F1111422F8C0D4C
:1029A00000C000C0002C64BB119709F086CE20EE59
:1029B00031E0D3010E940E24DC01CB01F4E0B69596
:1029C000A79597958795FA95D1F720E030E0B90162
:1029D000EAE96E9E060C611D7E9E600D711D11243C
:1029E000670D711D860F971FA11DB11D893E43E024
:1029F0009407A105B10508F434C0885E9340A1098D
:102A0000B10942E0B695A795979587954A95D1F774
:102A100047E0849F080E211D949F200D311D112435
:102A2000290F311D6091C70370E0860F971F820F39
:102A3000931F4091C8035091C9036091CA037091DC
:102A4000CB03292F3327420F531F611D711D409364
:102A5000C8035093C9036093CA037093CB03809358
:102A6000C7037894C201DF91CF911F910F91EF902E
:102A7000DF90CF90BF90AF908F907F906F905F90DE
:102A80004F900C94101E4F925F926F927F928F9294
:102A9000AF92BF92CF92DF92EF920F931F93CF939B
:102AA000DF93EB010F962C010E941A1EF894E88127
:102AB000F9817EB178606EB1677F6EB9CA848F810B
:102AC0002C2D281B822F2F83BF846A807B801D853D
:102AD0000C85DE841F5F0F5FD3949E813885A984A7
:102AE000EB844181D30120E0C32F522F322F31815B
:102AF000442788943111380F08F43FEF819588946A
:102B000010FD430F4795889411FD430F4795889416
:102B100012FD430F4795889413FD430F4795889402
:102B200014FD430F4795889415FD430F47958894EE
:102B300016FD430F4795889417FD430F47958894DA
:102B4000232F1111242F8C0D422F002C7EB900C091
:102B500047FF6EB930812227889400C000C0002C46
:102B60006EB93111390F00C0002C7EB900C046FF8C
:102B70006EB908F43FEF9195889400C000C0002C16
:102B80006EB900FD230F00C0002C7EB900C045FFC8
:102B90006EB92795889401FD230F00C000C0002C5A
:102BA0006EB92795889400C0002C7EB900C044FF00
:102BB0006EB902FD230F2795889400C000C0002C39
:102BC0006EB903FD230F00C0002C7EB900C043FF87
:102BD0006EB92795889404FD230F00C000C0002C17
:102BE0006EB92795889400C0002C7EB900C042FFC2
:102BF0006EB905FD230F2795889400C000C0002CF6
:102C00006EB906FD230F00C0002C7EB900C041FF45
:102C10006EB92795889407FD230F00C000C0002CD3
:102C20006EB92795889400C0002C7EB900C040FF83
:102C30006EB9432F0111422F9A0D00C000C0002C25
:102C40006EB900C000C0002C7EB900C047FF6EB94D
:102C500032812227889400C000C0002C6EB9311147
:102C60003C0F00C0002C7EB900C046FF6EB908F4CE
:102C70003FEFEB0DF11D00C000C0002C6EB9D0FC81
:102C8000230F00C0002C7EB900C045FF6EB9279508
:102C90008894D1FC230F00C000C0002C6EB927958A
:102CA000889400C0002C7EB900C044FF6EB9D2FCED
:102CB000230F2795889400C000C0002C6EB9D3FC68
:102CC000230F00C0002C7EB900C043FF6EB92795CA
:102CD0008894D4FC230F00C000C0002C6EB9279547
:102CE000889400C0002C7EB900C042FF6EB9D5FCAC
:102CF000230F2795889400C000C0002C6EB9D6FC25
:102D0000230F00C0002C7EB900C041FF6EB927958B
:102D10008894D7FC230F00C000C0002C6EB9279503
:102D2000889400C0002C7EB900C040FF6EB9432FCC
:102D3000D110422FC19500C000C0002C6EB9CE0D3D
:102D400000C000C07EB900C047FF6EB931812227A4
:102D5000889400C000C0002C6EB93111380F00C03B
:102D6000002C7EB900C046FF6EB908F43FEF819594
:102D7000889400C000C0002C6EB910FD230F00C065
:102D8000002C7EB900C045FF6EB92795889411FDCF
:102D9000230F00C000C0002C6EB92795889400C096
:102DA000002C7EB900C044FF6EB912FD230F279599
:102DB000889400C000C0002C6EB913FD230F00C022
:102DC000002C7EB900C043FF6EB92795889414FD8E
:102DD000230F00C000C0002C6EB92795889400C056
:102DE000002C7EB900C042FF6EB915FD230F279558
:102DF000889400C000C0002C6EB916FD230F00C0DF
:102E0000002C7EB900C041FF6EB92795889417FD4C
:102E1000230F00C000C0002C6EB92795889400C015
:102E2000002C7EB900C040FF6EB9432F1111422F14
:102E30008C0D00C000C0002C6EB9119709F086CE31
:102E400020EE31E0D3010E940E24DC01CB01F4E03E
:102E5000B695A79597958795FA95D1F720E030E03C
:102E6000B901EAE96E9E060C611D7E9E600D711D22
:102E70001124670D711D860F971FA11DB11D893E7D
:102E800043E09407A105B10508F434C0885E93407F
:102E9000A109B10942E0B695A795979587954A95FE
:102EA000D1F747E0849F080E211D949F200D311D0E
:102EB0001124290F311D6091C70370E0860F971F01
:102EC000820F931F4091C8035091C9036091CA03B8
:102ED0007091CB03292F3327420F531F611D711DA2
:102EE0004093C8035093C9036093CA037093CB0304
:102EF0008093C7037894C201DF91CF911F910F9106
:102F0000EF90DF90CF90BF90AF908F907F906F90B9
:102F10005F904F900C94101E4F925F926F927F9231
:102F20009F92AF92BF92CF92DF92EF92FF920F9358
:102F30001F93CF93DF9300D0CDB7DEB7FC01A08104
:102F4000B1811296CD90DC90139719821A821B8260
:102F500061111DC045855685628173819E012F5F79
:102F60003F4FCF01F60119950F900F900F90DF9111
:102F7000CF911F910F91FF90EF90DF90CF90BF9076
:102F8000AF909F907F906F905F904F9008958C01CD
:102F90000A5F1F4FCE0101967C015F0199E0A90EE7
:102FA000B11C462E512C612C712CD8012D918D0114
:102FB000222311F112969C909920F1F0822F90E03B
:102FC000A0E0B0E09C01AD012F5F3F4F4F4F5F4F3E
:102FD000C301B2010E94A1239B01AC01892D90E0A5
:102FE000A0E0B0E0BC01CD016F5F7F4F8F4F9F4FDE
:102FF0000E94A123D7018C93BFEFEB1AFB0A0A159D
:103000001B0599F6A7CF3091000420910104E32F0E
:10301000F22F009739F00197309741F00480F58145
:10302000E02DF7CF309711F03E2F2F2F832F922FC7
:103030000895EF92FF920F931F93CF93DF93EC01CC
:103040007B018A01E881F9810480F581E02D1995E1
:10305000FB82EA821E870D87E881F9810284F3856D
:10306000E02DCE011995009701F19C0140E050E060
:1030700060E472E48FE090E00E94E7238091A9046D
:103080009091AA04A091AB04B091AC04821793076D
:10309000A407B50710F4DA01C9018093A90490933D
:1030A000AA04A093AB04B093AC04CE01DF91CF91FE
:1030B0001F910F91FF90EF9008954F925F927F9232
:1030C0008F929F92AF92BF92CF92DF92EF92FF9238
:1030D0000F931F93CF93DF93FC018A01D901481707
:1030E0005907D0F42C9111969C91119712968C91BE
:1030F0001297EB0138813C93398111963C931197DB
:103100003A8112963C931297288399838A839E2F43
:103110008F2FFA01092F182FEB014880512C8C9129
:1031200090E0841995099695982F8827979587950B
:103130002981822E912C1196EC901197F12CE81890
:10314000F908F694FE2CEE24F794E794AA80B12CAB
:1031500012962C9130E02A193B093695322F2227FE
:1031600037952795A8014E1B5F0B19F0742E452F3C
:1031700003C07724739440E0672D742F0E94B1231D
:103180006B01C701672D742F0E94B1237B01C90118
:10319000672D742F0E94B123CC0CDD1CEE0CFF1C9C
:1031A000AB01440F551FD42DCC27382D22279A2D43
:1031B0008827DF01AA0FBB1FAE0FBF1FA053BC4F54
:1031C0000E171F0780F0DC9311963C93119712960F
:1031D0009C931297CC0DDD1D2E0D3F1D840F951F66
:1031E00031961396EDCFDF91CF911F910F91FF9004
:1031F000EF90DF90CF90BF90AF909F908F907F9097
:103200005F904F90089520E330E040ED53E0FC01E3
:10321000DA0120FF05C002C001900D9201900D92CD
:103220002250D0F73040C0F7CA010895CF93DF9302
:10323000DB01EC0128816D817E81D3E02D029001BC
:103240001124EC01EB81FC816E177F0769F04C9132
:10325000408311964C911197418312964C9112978D
:103260004283E20FF31FF0CFDF91CF9108952F92A9
:103270003F924F925F926F927F928F929F92AF9206
:10328000BF92CF92DF92EF92FF920F931F93CF9353
:10329000DF93CDB7DEB729970FB6F894DEBF0FBE28
:1032A000CDBF2C017B01DA016901F8012617370730
:1032B000C0F42081918182813C91308311963C91B0
:1032C0001197318312963C91129732832C93119669
:1032D0009C93119712968C9312978F2D7601C62E80
:1032E000D82E2281222319F08181811102C08C9174
:1032F000808312966C9012978081662029F0119637
:103300009C911197911101C08C9311968C901197FB
:10331000912CE181F0E0E819F909F695FE2FEE27EE
:10332000F795E795712C30E0261937093695322F3D
:103330002227379527954C91841B87FF5EC0819586
:1033400050E8859FC0011124919581959109B6019E
:103350006E197F0911F05B0103C0AA24A394B12C5C
:10336000B5010E94B1238B01CF01B5010E94B123A9
:10337000FB01C901B5010E94B123C801880F991F43
:103380009D838C83CF01880F991F9F838E83CB01F0
:10339000880F991F99878887042F10E0102F002726
:1033A000982C8824762C66241701220C331C2E0CB2
:1033B0003F1CA12CB12CCE14DF0420F119839A827A
:1033C0007B82B1016A0D7B1D640D751DCE010196D6
:1033D0000E946F038C819D81080F191F8E819F8130
:1033E000880E991E88859985680E791E9FEFE91AC7
:1033F000F90A53E0A50EB11CDECF50E8859FC0014D
:103400001124A5CF29960FB6F894DEBF0FBECDBF0D
:10341000DF91CF911F910F91FF90EF90DF90CF90B0
:10342000BF90AF909F908F907F906F905F904F90E4
:103430003F902F900895009769F0FC0101900020C3
:10344000E9F73197AF01481B590BBC0182E094E0CA
:103450000C94321C80E090E008958F929F92AF927E
:10346000BF920F931F93CF93DF93CDB7DEB7A19792
:103470000FB6F894DEBF0FBECDBF19A2423008F4DC
:103480004AE08E010F5D1F4F842E912CA12CB12C90
:10349000A50194010E94C523E62FB901CA0101507C
:1034A0001109EA3014F4E05D01C0E95CD801EC9345
:1034B000232B242B252B61F7C8010E941B1AA196F0
:1034C0000FB6F894DEBF0FBECDBFDF91CF911F9135
:1034D0000F91BF90AF909F908F900895CF93DF93FF
:1034E000682F70E080E090E04AE00E942D1AEC0125
:1034F00080E193E00E941B1A8C0F9D1FDF91CF91FA
:103500000895CF93DF930E941B1AEC0180E193E0B2
:103510000E941B1A8C0F9D1FDF91CF910895CF92AF
:10352000DF92EF92FF92CF93DF936C01990FEE0839
:10353000FF08F7FE13C06DE282E094E00E94C91C10
:10354000EC0166277727CB016C197D098E099F094D
:103550004AE00E942D1AC80FD91F06C04AE0C701D1
:10356000B6010E942D1AEC0180E193E00E941B1A23
:103570008C0F9D1FDF91CF91FF90EF90DF90CF9048
:1035800008953FB7F8948091CC039091CD03A0911A
:10359000CE03B091CF0326B5A89B05C02F3F19F0ED
:1035A0000196A11DB11D3FBFBA2FA92F982F8827C3
:1035B000820F911DA11DB11DBC01CD0142E0660F1E
:1035C000771F881F991F4A95D1F708952FB7F89450
:1035D0006091C8037091C9038091CA039091CB0395
:1035E0002FBF0895CF92DF92EF92FF920F931F9318
:1035F000CF93DF93182F8091A9049091AA04A091F2
:10360000AB04B091AC04892B8A2B8B2BE9F00E9480
:10361000C11AC090B904D090BA04E090BB04F090F5
:10362000BC04DC01CB018C199D09AE09BF09C09017
:10363000A904D090AA04E090AB04F090AC048C15DF
:103640009D05AE05BF05B8F20E94C11A6093B9048A
:103650007093BA048093BB049093BC04E091B104CE
:10366000F091B204309759F04091AD045091AE04FE
:103670006091AF047091B004812F1995182FC091FB
:103680000004D0910104209791F0FC848091A7045C
:103690009091A8048436910508F41C86612FCE0110
:1036A0000E948C17FC860C80DD81C02DECCF8091B0
:1036B000B7049091B804EC012196D093B804C0935C
:1036C000B70449979CF10E94E61A8B019C0188EE91
:1036D00093E0C89FB001C99F700DD89F700D112451
:1036E000072E000C880B990BC090B304D090B40443
:1036F000E090B504F090B604A90198012C193D0999
:103700004E095F090E94C5233093A8042093A704A3
:103710001092B8041092B7040E94E61A6093B304A2
:103720007093B4048093B5049093B604DF91CF9165
:103730001F910F91FF90EF90DF90CF9008950F931E
:103740001F930E94E61A60930A0470930B048093FF
:103750000C0490930D0482E094E00E94831C97FF78
:103760001FC00E94E61A00910A0410910B042091D8
:103770000C0430910D04DC01CB01801B910BA20BDA
:10378000B30B0091060410910704209108043091B6
:10379000090480179107A207B307E8F28FEF9FEFA4
:1037A0001F910F910895CF92DF92EF92FF92CF93E6
:1037B0000E949F1BFC0197FD0BC08D32910561F0AB
:1037C000C0970A9748F082E094E00E946F1CF0CF07
:1037D00060E070E0CB0140C0C12CD12C7601C0E08C
:1037E000E130F10501F1ED32F105E1F0CF01C097D3
:1037F0000A97C8F4AAE0B0E0A70196010E948723C7
:103800006F01FF0FEE08FF08DC01CB018C0D9D1D41
:10381000AE1DBF1D6C017D0120E3C21AD108E10875
:10382000F10801C0C1E082E094E00E946F1C0E9498
:103830009F1BFC01C0970A9798F2E130F10581F2D5
:10384000CC2341F066277727CB016C197D098E09BF
:103850009F0902C0C701B601CF91FF90EF90DF90A2
:10386000CF900895CF92DF92EF92FF920F931F9324
:10387000CF93DF936C017A018B01C0E0D0E0CE15CD
:10388000DF0581F0D8016D918D01D601ED91FC919C
:103890000190F081E02DC6011995892B11F0219638
:1038A000EECF7E01C701DF91CF911F910F91FF9065
:1038B000EF90DF90CF900895089580E090E0089514
:1038C000FC01538D448D252F30E0842F90E0821B26
:1038D000930B541710F0CF96089501970895FC01AB
:1038E000918D828D981761F0828DDF01A80FB11D37
:1038F0005D968C91928D9F5F9F73928F90E008955B
:103900008FEF9FEF0895FC01918D828D981731F014
:10391000828DE80FF11D858D90E008958FEF9FEF68
:103920000895FC01918D228D892F90E0805C9F4F3E
:10393000821B91098F739927089582E094E00E9479
:10394000911C21E0892B09F420E0822F0895FC01CD
:10395000848DDF01A80FB11DA35ABF4F2C91848D18
:1039600090E001968F739927848FA689B7892C934D
:10397000A089B1898C91837080648C93938D848DA0
:10398000981306C00288F389E02D80818F7D8083A3
:103990000895EF92FF920F931F93CF93DF93EC0163
:1039A00081E0888F9B8D8C8D981305C0E889F989FB
:1039B000808185FD26C0F62E0B8D10E00F5F1F4F16
:1039C0000F731127E02E8C8DE8120CC00FB607FC88
:1039D000FACFE889F989808185FFF5CFCE010E9471
:1039E000A71CF1CF8B8DFE01E80FF11DE35AFF4FAD
:1039F000F0829FB7F8940B8FEA89FB8980818062FF
:103A00000AC09FB7F894EE89FF896083E889F98935
:103A100080818370806480839FBF81E090E0DF912C
:103A2000CF911F910F91FF90EF900895CF93DF9367
:103A3000EC01888D8823C9F0EA89FB89808185FDA6
:103A400005C0A889B9898C9186FD0FC00FB607FC07
:103A5000F5CF808185FFF2CFA889B9898C9185FF48
:103A6000EDCFCE010E94A71CE7CFDF91CF91089543
:103A700080E090E0892B21F00E949D1C811125C0DF
:103A800080E090E0892B41F080E090E0892B21F0EC
:103A90000E94000081111CC080E090E0892B41F061
:103AA00080E090E0892B21F00E940000811113C07A
:103AB00080E090E0892BA1F080E090E0892B81F0FC
:103AC0000E94000081110AC008950E940000D8CF12
:103AD0000E940000E1CF0E940000EACF0C94000099
:103AE00008951F920F920FB60F9211240BB60F92EA
:103AF0002F933F934F935F936F937F938F939F93F6
:103B0000AF93BF93EF93FF9382E094E00E94A71CD2
:103B1000FF91EF91BF91AF919F918F917F916F91A5
:103B20005F914F913F912F910F900BBE0F900FBE61
:103B30000F901F9018951F920F920FB60F9211249D
:103B40000BB60F922F938F939F93EF93FF93E09178
:103B50001204F09113048081E0911804F09119048B
:103B600082FD12C0908180911B048F5F8F73209122
:103B70001C04821751F0E0911B04F0E0EE5FFB4F54
:103B8000958F80931B0401C08081FF91EF919F91DD
:103B90008F912F910F900BBE0F900FBE0F901F9023
:103BA00018950F931F93CF93DF9320918D072F5F6D
:103BB000322F377030938D0720FF02C020E801C0FC
:103BC00020E031FD2064347009F02062205FFC01A8
:103BD000EC01239600E011E06485662331F070E08B
:103BE000C8010E94B1236F5F01C060E06187322F7E
:103BF000369F030E30E0311D1124311102C01682B0
:103C000002C031503683662311F0615061873196CE
:103C1000CE17DF0709F7DF91CF911F910F9108951C
:103C2000CF93DF93EC010E94C11A79836883DF91FF
:103C3000CF910895CF93DF93EC010E94C11A2881A0
:103C40003981621B730B6A307105B8F3DF91CF9134
:103C500008951F920F920FB60F9211242F933F9346
:103C60008F939F93AF93BF938091C8039091C903A3
:103C7000A091CA03B091CB0330918E0723E0230FAC
:103C80002D3720F40196A11DB11D05C026E8230F94
:103C90000296A11DB11D20938E078093C8039093B7
:103CA000C903A093CA03B093CB038091CC03909136
:103CB000CD03A091CE03B091CF030196A11DB11DFC
:103CC0008093CC039093CD03A093CE03B093CF0306
:103CD000BF91AF919F918F913F912F910F900FBE08
:103CE0000F901F901895CF93DF93CDB7DEB7E8976D
:103CF0000FB6F894DEBF0FBECDBF789484B5826056
:103D000084BD84B5816084BD85B5826085BD85B57F
:103D1000816085BD80916E00816080936E001092FD
:103D20008100809181008260809381008091810078
:103D30008160809381008091800081608093800009
:103D40008091B10084608093B1008091B000816067
:103D50008093B00080919100826080939100809167
:103D600091008160809391008091900081608093A8
:103D700090008091A10082608093A1008091A100B9
:103D800081608093A1008091A00081608093A00059
:103D900080912101826080932101809121018160C5
:103DA0008093210180912001816080932001809186
:103DB0007A00846080937A0080917A008260809398
:103DC0007A0080917A00816080937A0080917A00F5
:103DD000806880937A001092C100E0911204F09103
:103DE000130482E08083E0911204F09113041082A6
:103DF000E0910E04F0910F041082E0911004F09114
:103E0000110480E1808310921A04E0911604F0916D
:103E1000170486E08083E0911404F09115048081FA
:103E200080618083E0911404F091150480818860A2
:103E30008083E0911404F091150480818068808370
:103E4000E0911404F091150480818F7D80838CEDC6
:103E500095E0A0E0B0E08093060490930704A0935F
:103E60000804B09309040E94C11A4B015C01E8EEFA
:103E7000CE2EE3E0DE2EE12CF12C0E94C11ADC01F3
:103E8000CB0188199909AA09BB09883E9340A1056D
:103E9000B10598F321E0C21AD108E108F10838EE23
:103EA000830E33E0931EA11CB11CC114D104E104A4
:103EB000F10419F70091A2041091A30480912D033D
:103EC000811111C08CE193E00E94070310922C0332
:103ED00010922B0382E292E090931D0380931C03C7
:103EE00081E080932D034EEE50E0B8018CE193E029
:103EF0000E9419180091A2041091A3048091460316
:103F0000811111C085E393E00E94070310924503DD
:103F10001092440384E392E0909336038093350338
:103F200081E0809346034EEE50E0B80185E393E0D4
:103F30000E9419180091A2041091A30480915F03BC
:103F4000811111C08EE493E00E94070310925E037A
:103F500010925D0386E492E090934F0380934E03AA
:103F600081E080935F0348EE50E0B8018EE493E077
:103F70000E9419180091A2041091A3048091780363
:103F8000811111C087E693E00E9407031092770326
:103F90001092760388E592E090936803809367031C
:103FA00081E0809378034CEE50E0B80187E693E01F
:103FB0000E9419180091A2041091A304809191030A
:103FC000811111C080E893E00E94070310929003D2
:103FD00010928F038AE692E090938103809380038E
:103FE00081E0809391034DEE50E0B80180E893E0CA
:103FF0000E9419180091A2041091A3048091AA03B1
:10400000811111C089E993E00E9407031092A9036E
:104010001092A8038CE792E090939A0380939903FF
:1040200081E08093AA0348EE50E0B80189E993E06B
:104030000E94191880EE92E1909305028093040289
:1040400080917B00877F80937B0082E480937C005B
:1040500080917A00806480937A0080917A0086FD56
:10406000FCCF809178002091790090E0922B2091F4
:10407000040230910502820F931F909305028093F2
:10408000040285EE92E00E94811A82E08093190377
:10409000C12CD12C760170EF872E912CA12CB12C44
:1040A000C701B601A50194010E94E723122F80E405
:1040B000820F0E943403812F0E9434037FEFD71AAE
:1040C000E70AF70AC11480EFD806E104F10441F7CA
:1040D00061E082E00E94BD076E0191E3C90ED11C30
:1040E0009E012F5F3F4F790164E6262E82E094E027
:1040F0000E94911C181619060CF006C282E094E08A
:104100000E946F1C8093B5038A3071F08AEF92E0B1
:104110000E941B1A6091B50382E094E00E94C91CC2
:104120008BEF92E00E941B1AE091B5038E2F90E076
:10413000FC01E156F109E731F105C0F68827EE5898
:10414000FF4F8F4F0C940624109219030E94D31B2B
:10415000CB016F3F710519F014F08FEF90E097FFDE
:1041600002C080E090E09093B4038093B3030E9478
:104170008F1A8091B30389AB8FEF8AAB8BABB701FA
:10418000C6010E946F03A70160EF70E08091A20456
:104190009091A3040E94A807A9CF0E94D31B862F49
:1041A000609303020E946E1A809103028093A6041A
:1041B0009DCF8BEF92E00E94811A1092190361E06B
:1041C00080E05DC10E94D31B7093B4036093B3037E
:1041D000CB016F3F710519F014F08FEF90E097FF5E
:1041E00002C080E090E090931B0380931A030E942A
:1041F0008F1A7CCF0E94D31B7093B4036093B303D8
:1042000020911903672B41F0822F90E0019665E61B
:1042100070E00E94B12304C08FEF820F8F3F19F02E
:104220008093190329C12092190326C10E94D31B30
:104230007093B4036093B303CB0161E270E00E941A
:10424000B1235C018093B203FC01FF27EE0FFF1F37
:10425000E657FD4F00811181C801812C912CFC0192
:1042600045915591659174913FEF831A930A049695
:104270004F3FA9F7F8014590559065907490972DA0
:10428000562DA52D33243A9420E030E00C5F1F4FCB
:10429000F801459055906590749044E035952795C8
:1042A0004A95E1F7822F642D70E078AF6FAB442D13
:1042B00042954F7070E18716910480F4632D032CB2
:1042C000000C770B6217730744F02FE0321629F0C9
:1042D00081E0830D481708F4482F342E59AA6AAAA2
:1042E0007BAAA9835A839B8350E09601B70190E093
:1042F0000E945D182FA938ADA52D562D972D2F3F63
:10430000310509F0C3CF8A2DFCC08091B60331E09E
:1043100083278093B6038BEF92E00E94811AE6CE4A
:104320000E94D31B7093B4036093B30377FD08C05E
:104330006F3F710519F014F06FEF70E0862F01C028
:1043400080E080931803DDC00E94D31B7093B403F8
:104350006093B30377FD08C06F3F710519F014F047
:104360006FEF70E0862F01C080E0809318030E94F9
:104370006E1A8FE70E945603A82E80E20E94560311
:1043800010911803482E410E8FE30E94560390ECC3
:10439000992E980E80E20E945603712E780E8FE3BC
:1043A0000E94560320EC622E680E80E20E945603A3
:1043B000512E580E8FE70E945603082F80E20E946C
:1043C00056035CAABB24BA94BDAA6EAA810F89AB1E
:1043D000BAAA00580BAB8E010C5C1F4F25E030E0F1
:1043E000A60160E070E0C7010E9437197CAA30EC9A
:1043F000832E8DAA9EAA59AABAAA6BAA2AE030E0F7
:10440000A60165E070E0C7010E9437194CAABDAA59
:1044100080E88A0D8EAB79AA8AAA9BAA2FE030E0A9
:10442000A6016AE070E0C7010E94371960EDE61648
:1044300063E0F60629F020F0C7010E94031956CE6A
:1044400080E390E020E034E0F601D90180FF05C070
:1044500002C002900E9202900E928250D0F79040CD
:10446000C0F744CE0E94D31B862F653608F084E641
:10447000809319030E946E1A61E0809119030E94D3
:10448000BD0734CE8BEF92E00E94811A81E09091BB
:104490001703911180E08093170328CE0E94D31B4D
:1044A000862F633070F182E02CC00E94D31B709382
:1044B000B4036093B30377FD16C06F3F710589F0B5
:1044C00084F06FEF70E00DC00E94D31B7093B403B3
:1044D0006093B30377FD07C06430710514F063E0A7
:1044E00070E0862F0EC080E00CC06091190382E05E
:1044F00090E00E9479238DEF92E00E941B1A809138
:1045000019030E946E1AF2CD8091BF0381111DC064
:1045100080901A0390901B03092C000CAA08BB087A
:104520000E94E61A6093B7037093B8038093B903AF
:104530009093BA038092BB039092BC03A092BD03F8
:10454000B092BE0381E08093BF030E94E61A0091FF
:10455000B7031091B8032091B9033091BA03DC017D
:10456000CB01801B910BA20BB30B0091BB031091ED
:10457000BC032091BD033091BE0380179107A207B1
:10458000B307F8F00E94E61A6093B7037093B8037C
:104590008093B9039093BA0380911A0390911B03FF
:1045A000092E000CAA0BBB0B8093BB039093BC039A
:1045B000A093BD03B093BE0360E0809119030E94F5
:1045C000BD078091B603882309F43CC040910402E2
:1045D0005091050225E038E0429FC001439F900DB5
:1045E000529F900D1124875E994C90930502809301
:1045F0000402890F8A3030F58FEE0E9456039091A5
:104600009F04E091A204F091A30497FF06C033E059
:10461000839FE019F109112405C063E0869FE00D36
:10462000F11D11243FEF2081230F08F42FEF208389
:104630002181230F08F42FEF21832281230F08F417
:104640002FEF228380911903863020F08091A604F9
:104650000E94F21A0E94381D47CDE2E0F4E0138276
:10466000128288EE93E0A0E0B0E084839583A68375
:10467000B78380ED92E09183808385EC90E095870D
:10468000848784EC90E09787868780EC90E0918B1C
:10469000808B81EC90E0938B828B82EC90E0958B09
:1046A000848B86EC90E0978B868B118E128E138E06
:1046B000148EEFE9F4E081E0808380EF90E0928354
:1046C00081838DEB94E0948383838DE897E09683D8
:1046D0008583E6EAF4E08FEF8083128211821486EC
:1046E00013868FEF9FEFDC0187839087A187B287C6
:1046F0000895262FF999FECF1FBA92BD81BD20BD26
:104700000FB6F894FA9AF99A0FBE019608950E948E
:104710009223A59F900DB49F900DA49F800D911D95
:1047200011240895A29FB001B39FC001A39F700DF3
:10473000811D1124911DB29F700D811D1124911DA9
:104740000895DB018F939F930E948723BF91AF91C0
:10475000A29F800D911DA39F900DB29F900D1124DB
:10476000089597FB072E16F4009407D077FD09D023
:104770000E94152407FC05D03EF4909581959F4F2B
:104780000895709561957F4F0895A1E21A2EAA1B96
:10479000BB1BFD010DC0AA1FBB1FEE1FFF1FA217F1
:1047A000B307E407F50720F0A21BB30BE40BF50BEE
:1047B000661F771F881F991F1A9469F76095709577
:1047C000809590959B01AC01BD01CF010895052E08
:1047D00097FB1EF400940E94FE2357FD07D00E9411
:1047E000C52307FC03D04EF40C94FE23509540954E
:1047F000309521953F4F4F4F5F4F0895909580958D
:10480000709561957F4F8F4F9F4F0895EE0FFF1F5B
:10481000881F8BBF0790F691E02D19940E94922378
:10482000B7FF0895821B930B0895AA1BBB1B51E190
:1048300007C0AA1FBB1FA617B70710F0A61BB70B10
:10484000881F991F5A95A9F780959095BC01CD01B5
:10485000089581E090E0F8940C942E24F894FFCF12
:10486000FF0101FF3905003131295A1B750A00008B
:104870000000FA08FA08FA08DD0200030403000049
:1048800000001A0ED60D600EDD0200035D0E640EF0
:10489000000000001A0ED60D620EDD0200035D0E50
:1048A000AD10000000001A0ED60DF612DD02000356
:1048B0005D0EFA12000000001A0ED60DF812DD028D
:1048C00000035D0E4315000000001A0ED60DFC0813
:1048D000DD0200035D0E0809000000001A0ED60D6F
:1048E0000209DD0200035D0E6F0B3605220512057D
:1048F000EE04E604D204BE04A6048E04720452043C
:104900002204FE03E603CA03B2039203760366039E
:1049100052033A0326031603E202C6029A027E02FB
:1049200052021E020202EE01D201BE01000000008E
:10493000C91C321C601C161D911C6F1C831C4D6F02
:1049400064653A20002D2D2D534554555020434F7A
:104950004D504C4554452D2D2D0023200057726994
:1049600074696E67206B6579626F6172643A2000CA
:044970000D0A00002C
:00000001FF
