:100000000C94DA000C940B010C940B010C940B0172
:100010000C940B010C940B010C940B010C940B0130
:100020000C940B010C940B010C940B010C940B0120
:100030000C940B010C940B010C940B010C940B0110
:100040000C940B010C940B010C940B010C940B0100
:100050000C940B010C940B010C940B010C940F19D4
:100060000C940B010C9402160C94D8150C940B01F3
:100070000C940B010C940B010C940B010C940B01D0
:100080000C940B010C940B010C940B010C940B01C0
:100090000C940B010C940B010C940B010C940B01B0
:1000A0000C940B010C940B010C940B010C940B01A0
:1000B0000C940B010C940B010C940B010C940B0190
:1000C0000C940B010C940B010C940B010C940B0180
:1000D0000C940B010C940B010C940B010C940B0170
:1000E0000C940B01E61C1B1D271D301D441DB81C64
:1000F0005F1D691DB81CB81CB81CB81C7D1D8D1D6A
:10010000B81C991DB81CB81CA01DB81CB81CB81C84
:10011000B21D0C942B0C0C949E150C9459190C9434
:100120000C110C948D1D0C94301D0C940E070C9426
:10013000BF0E0C94E80B0C94760C0C94691D0C9477
:10014000740C0C947D1D0C94E61C0C94441D0C94B2
:10015000B81C0C945F1D0C943E1A0C946F0C0C94FC
:1001600008110C947A1E0C94D6150C941B1D0C943B
:100170008A190C9455130C94991D0C940A110C9423
:100180000D010C941A070C9414070C947C190C9410
:10019000A01D0C94271D0C9468190C9430010C942C
:1001A00034010C94720C0C94F1190C9481090C9488
:1001B000B21D7A1E11241FBECFEFD1E2DEBFCDBF2C
:1001C00000E00CBF27E0A2EDB2E001C01D92AB3110
:1001D000B207E1F712E0A0E0B2E0EAEFFEE300E0F0
:1001E0000BBF02C007900D92A23DB107D9F710E0F6
:1001F000CAEDD0E000E006C021970109802FFE0182
:100200000E94531FC93DD10780E00807A9F70E944B
:10021000B81A0C947B1F0C940000CF93DF9300D08E
:1002200000D0CDB7DEB7AB011C821D821E82DC017F
:10023000ED91FC910190F081E02D19821A821B82D0
:100240009E012F5F3F4FBE016C5F7F4F1995269631
:100250000FB6F894DEBF0FBECDBFDF91CF910895EA
:10026000FC0185859685089580E090E00895FC0165
:1002700082E192E091838083138212828FEF8683E2
:100280008783808781878287838781E0848716863A
:100290001586158214828091880390918903892B99
:1002A00021F4F0938903E0938803A091D202B091E6
:1002B000D302109721F01596FC93EE931497F093C8
:1002C000D302E093D2020895482F982F46FD9095CF
:1002D000E92FEF739F7046FD9F5FE695E695E695E3
:1002E000E670F0E0EA5FFD4F2181299F802D212DEE
:1002F000112482958F702295207F822B3081982F38
:10030000930F892F47FD8195805808951F93DC0135
:10031000FB017C9111964C91119712961C91972F8D
:100320009F71990F990F990F35E5292F239F020E81
:1003300020E0211D1124822F672F6074572F5072E7
:1003400077FD1FC061110AC0511103C0922F909513
:1003500011C025E5280F90E08BEA34C051110DC083
:10036000392F2AEA329F030E30E0311D11249BEA17
:10037000931B280F892F90E025C090E02095982F9F
:100380000FC0611112C051110DC0392F2AEA329FDE
:10039000030E30E0311D11242BEA231B95E5930F4A
:1003A00080E010C0922F90950CC0511104C025E53B
:1003B000280F9BEA04C02AEA280F90E0932F981B8D
:1003C000822F20E04F3F09F427C0442311F18823F6
:1003D00031F0382F349F030E30E0311D832F22235C
:1003E00021F0249F020E20E0211D992331F0392FA6
:1003F000349F030E30E0311D932F1124342F30959C
:10040000339F030E30E0311D1124830F230F930F10
:1004100003C09FEF2FEF8FEF1F3F09F424C030E0A0
:10042000112321F0119F312D09F03F5F3323C1F0DB
:10043000882331F0482F439F040E40E0411D842F54
:10044000222321F0239F020E20E0211D992331F069
:10045000492F439F040E40E0411D942F112403C0F7
:1004600090E020E080E08083218392831F910895B3
:100470005F926F927F928F929F92AF92BF92CF9234
:10048000DF92EF92FF920F931F93CF93DF93CDB73D
:10049000DEB72D970FB6F894DEBF0FBECDBF1FEFAE
:1004A000109300028091D7028F5F8093D7028887D4
:1004B00019871A87BE01655F7F4FCE0108960E949B
:1004C000860187E2E82E84E0F82EF701838194818B
:1004D00001E009832AE3822E912C9B828A829D83EC
:1004E0008C8382559F4F9F838E83BE01655F7F4FB4
:1004F000CE0101960E9409178091D7028C5E8887F1
:1005000019871A87BE01655F7F4FCE0108960E944A
:100510008601F7018381948109833CE3A32EB12CEA
:10052000BB82AA829C0122553F4F3D832C838E596A
:100530009E4F9F838E83BE01655F7F4FCE010196E4
:100540000E9409178091D702885D888719871A87CA
:10055000BE01655F7F4FCE0108960E948601F701BC
:100560008381948109834DE3C42ED12CDB82CA821E
:100570009C012E593E4F3D832C83875E9D4F9F8368
:100580008E83BE01655F7F4FCE0101960E940917E1
:100590008091D702845C888719871A87BE01655FBE
:1005A0007F4FCE0108960E948601F70183819481D6
:1005B0000983DB82CA829C012A5E3D4F3D832C83E6
:1005C00083539D4F9F838E83BE01655F7F4FCE0116
:1005D00001960E94091780E090E00E94AF166FEF2D
:1005E0000E94381688E2888719871A87BE01655FDE
:1005F0007F4FCE0108960E948601F7018381948186
:1006000009839B828A829D838C8382559F4F9F831F
:100610008E83BE01655F7F4FCE0101960E94091750
:1006200082E3888719871A87BE01655F7F4FCE01F5
:1006300008960E948601F701838194810983BB8219
:10064000AA829C0122553F4F3D832C838E599E4F99
:100650009F838E83BE01655F7F4FCE0101960E940E
:1006600009178CE3888719871A87BE01655F7F4F5A
:10067000CE0108960E948601F70183819481098347
:10068000DB82CA829C012E593E4F3D832C83875EBC
:100690009D4F9F838E83BE01655F7F4FCE01019684
:1006A0000E94091786E4888719871A87BE01655F4B
:1006B0007F4FCE0108960E948601F70183819481C5
:1006C0000983DB82CA829C012A5E3D4F3D832C83D5
:1006D00083539D4F9F838E83BE01655F7F4FCE0105
:1006E00001960E9409177090000281E090E00E943C
:1006F000AF16672D0E94381680E5888719871A87FC
:10070000BE01655F7F4FCE0108960E948601F7010A
:100710008381948109839B828A829D838C83825505
:100720009F4F9F838E83BE01655F7F4FCE010196F1
:100730000E9409178AE5888719871A87BE01655FB5
:100740007F4FCE0108960E948601F7018381948134
:100750000983BB82AA829C0122553F4F3D832C8393
:100760008E599E4F9F838E83BE01655F7F4FCE0162
:1007700001960E94091784E6888719871A87BE01A7
:10078000655F7F4FCE0108960E948601F701838145
:1007900094810983DB82CA829C012E593E4F3D839E
:1007A0002C83875E9D4F9F838E83BE01655F7F4F45
:1007B000CE0101960E9409178EE6888719871A874D
:1007C000BE01655F7F4FCE0108960E948601F7014A
:1007D00083819481098357E3652E712C7B826A8221
:1007E0009C012A5E3D4F3D832C8385549D4F9F8302
:1007F0008E83BE01655F7F4FCE0101960E9409176F
:100800005090000282E090E00E94AF16652D0E9499
:10081000381688E7888719871A87BE01655F7F4F7A
:10082000CE0108960E948601F70183819481098395
:100830009B828A829D838C8382559F4F9F838E8368
:10084000BE01655F7F4FCE0101960E94091782E8C5
:10085000888719871A87BE01655F7F4FCE0108968A
:100860000E948601F701838194810983BB82AA8259
:100870009C0122553F4F3D832C838E599E4F9F8371
:100880008E83BE01655F7F4FCE0101960E940917DE
:100890008CE8888719871A87BE01655F7F4FCE0174
:1008A00008960E948601F701838194810983DB8287
:1008B000CA829C012E593E4F3D832C83875E9D4FFB
:1008C0009F838E83BE01655F7F4FCE0101960E949C
:1008D000091786E9888719871A87BE01655F7F4FE8
:1008E000CE0108960E948601F701838194810983D5
:1008F0002BE330E03B832A839C012A5E3D4F3D83FE
:100900002C8389539D4F9F838E83BE01655F7F4FEC
:10091000CE0101960E9409175090000283E090E0FA
:100920000E94AF16652D0E94381680EA88871987C5
:100930001A87BE01655F7F4FCE0108960E9486012F
:10094000F7018381948109839B828A829D838C83B2
:1009500082559F4F9F838E83BE01655F7F4FCE017F
:1009600001960E9409178AEA888719871A87BE01AB
:10097000655F7F4FCE0108960E948601F701838153
:1009800094810983BB82AA829C0122553F4F3D83FB
:100990002C838E599E4F9F838E83BE01655F7F4F50
:1009A000CE0101960E94091784EB888719871A8760
:1009B000BE01655F7F4FCE0108960E948601F70158
:1009C000838194810983DB82CA829C012E593E4F28
:1009D0003D832C83875E9D4F9F838E83BE01655F21
:1009E0007F4FCE0101960E9409178EEB88871987E9
:1009F0001A87BE01655F7F4FCE0108960E9486016F
:100A0000F701838194810983BB82AA829C012A5EBB
:100A10003D4F3D832C8386539D4F9F838E83BE0124
:100A2000655F7F4FCE0101960E940917509000022A
:100A300084E090E00E94AF16652D0E94381688EC85
:100A4000888719871A87BE01655F7F4FCE01089698
:100A50000E948601F7018381948109839B828A82A7
:100A60009D838C8382559F4F9F838E83BE01655FDC
:100A70007F4FCE0101960E94091782ED8887198762
:100A80001A87BE01655F7F4FCE0108960E948601DE
:100A9000F701838194810983BB82AA829C0122553C
:100AA0003F4F3D832C838E599E4F9F838E83BE0183
:100AB000655F7F4FCE0101960E9409178CED8887F4
:100AC00019871A87BE01655F7F4FCE0108960E9485
:100AD0008601F701838194810983DB82CA829C01AC
:100AE0002E593E4F3D832C83875E9D4F9F838E837F
:100AF000BE01655F7F4FCE0101960E94091786EE09
:100B0000888719871A87BE01655F7F4FCE010896D7
:100B10000E948601F7018381948109837B826A8226
:100B20009C012A5E3D4F3D832C8385549D4F9F83BE
:100B30008E83BE01655F7F4FCE0101960E9409172B
:100B40001091000285E090E00E94AF16612F0E9494
:100B500038162D960FB6F894DEBF0FBECDBFDF91CD
:100B6000CF911F910F91FF90EF90DF90CF90BF90AA
:100B7000AF909F908F907F906F905F900895DA0173
:100B8000FC0180E090E0861797076CF42C9120839D
:100B900011962C911197218312962C9112972283F2
:100BA00001963396F0CF0895CF92DF92FF920F9384
:100BB0001F93CF93DF9300D0CDB7DEB7182F6623F6
:100BC000B1F18230E9F119821A821B82AE014F5FC6
:100BD0005F4F60EF70E080912A0490912B040E9497
:100BE000BF058CE992E00E942A178091D8020E94EA
:100BF0007D1780912E040E94CF17113009F4F4C0A4
:100C000090F0133009F4C0C0143009F0FCC0109209
:100C1000D90281E08093D60282E08093020283E0D1
:100C200080930102B4C019821A821B82E1C0833012
:100C300009F4AAC0843009F4AAC0823009F0E3C0E4
:100C40009091D60280910002911102C08B5F03C087
:100C5000913019F4855080930002009100020A3F00
:100C600020F081E08093D60204C0063010F4109288
:100C7000D60219821A821FEF1B83AE014F5F5F4FAE
:100C80006EEE70E080912A0490912B040E94BF05C3
:100C900080E090E00E94AF16602F0E943816198203
:100CA00000E80A831B82AE014F5F5F4F6EEE70E07B
:100CB00080912A0490912B040E94BF05F0900002BD
:100CC00081E090E00E94AF166F2D0E9438161983C4
:100CD0001A821B82AE014F5F5F4F68EE70E0809119
:100CE0002A0490912B040E94BF05F090000282E03C
:100CF00090E00E94AF166F2D0E94381619821A825A
:100D00001B83AE014F5F5F4F6CEE70E080912A0451
:100D100090912B040E94BF05F090000283E090E0C8
:100D20000E94AF166F2D0E94381619820A831B820B
:100D3000AE014F5F5F4F6DEE70E080912A0490919D
:100D40002B040E94BF050091000284E090E00E9405
:100D5000AF16602F0E94381619831A821B82AE01CB
:100D60004F5F5F4F68EE70E080912A0490912B04F2
:100D70000E94BF051091000285E090E00E94AF162E
:100D8000612F0E9438163FC00E9438023CC020915B
:100D9000D6028091D40290910202211102C0890FE3
:100DA00001C0891B8093D402F0900102C0902A04F4
:100DB000D0902B048091D40289838FEF8B8380EFB6
:100DC0008A8300E010E0B601600F711FCE0101962A
:100DD0000E94860189818F0D89830D5F1F4F003D21
:100DE00082E0180781F70FC08FEF89838A838B8396
:100DF000AE014F5F5F4F60EF70E080912A049091E9
:100E00002B040E94BF050F900F900F90DF91CF91A0
:100E10001F910F91FF90DF90CF900895E1E0F1E0F6
:100E20008081886080830895E1E0F1E080818061C5
:100E3000808308956F927F928F929F92AF92BF921C
:100E4000CF92DF92EF92FF920F931F93CF93DF9396
:100E5000EB010F963C010E94A91AF894E881F981F0
:100E600050910201586040910201477F4093020176
:100E7000EA848F812E2D281B822F2F83DF84AA8165
:100E8000BB816D857C85FE846F5F7F5FF3949E815F
:100E90003885B984AB84118120E0C32E022F322F14
:100EA0003181112788943111380F08F43FEF819573
:100EB000889460FD130F1795889461FD130F1795A3
:100EC000889462FD130F1795889463FD130F17958F
:100ED000889464FD130F1795889465FD130F17957B
:100EE000889466FD130F1795889467FD130F179567
:100EF0008894232F6111212F8E0D122F002C5093D7
:100F00000201002C17FF40930201308122278894B0
:100F100000C000C0409302013111390F00C050934E
:100F20000201002C16FF4093020108F43FEF919557
:100F3000889400C000C04093020170FD230F00C0E0
:100F400050930201002C15FF4093020127958894CD
:100F500071FD230F00C000C04093020127958894C3
:100F600000C050930201002C14FF4093020172FD57
:100F7000230F2795889400C000C04093020173FDA1
:100F8000230F00C050930201002C13FF4093020175
:100F90002795889474FD230F00C000C04093020180
:100FA0002795889400C050930201002C12FF4093B3
:100FB000020175FD230F2795889400C000C040935F
:100FC000020176FD230F00C050930201002C11FF97
:100FD000409302012795889477FD230F00C000C03D
:100FE000409302012795889400C050930201002C81
:100FF00010FF40930201132F7111122F9B0D00C09F
:1010000000C04093020100C000C050930201002CB8
:1010100017FF4093020132812227889400C000C04C
:101020004093020131113C0D00C050930201002C8D
:1010300016FF4093020108F43FEFED0DF11D00C0D3
:1010400000C040930201F0FC230F00C05093020146
:10105000002C15FF4093020127958894F1FC230F83
:1010600000C000C0409302012795889400C05093AF
:101070000201002C14FF40930201F2FC230F27957C
:10108000889400C000C040930201F3FC230F00C00D
:1010900050930201002C13FF40930201279588947E
:1010A000F4FC230F00C000C04093020127958894F0
:1010B00000C050930201002C12FF40930201F5FC86
:1010C000230F2795889400C000C040930201F6FCCE
:1010D000230F00C050930201002C11FF4093020126
:1010E00027958894F7FC230F00C000C040930201AD
:1010F0002795889400C050930201002C10FF409364
:101100000201132FF110122FC19400C000C04093B0
:101110000201CA0C00C0002C50930201002C17FFE2
:101120004093020131812227889400C000C040937F
:1011300002013111380F00C050930201002C16FF3C
:101140004093020108F43FEF8195889400C000C0ED
:101150004093020160FD230F00C050930201002C58
:1011600015FF409302012795889461FD230F00C06D
:1011700000C0409302012795889400C0509302015B
:10118000002C14FF4093020162FD230F27958894E1
:1011900000C000C04093020163FD230F00C05093C4
:1011A0000201002C13FF409302012795889464FDEF
:1011B000230F00C000C0409302012795889400C00F
:1011C00050930201002C12FF4093020165FD230F92
:1011D0002795889400C000C04093020166FD230F4C
:1011E00000C050930201002C11FF4093020127958B
:1011F000889467FD230F00C000C04093020127952B
:10120000889400C050930201002C10FF409302010B
:10121000132F6111122F8E0D00C000C040930201E8
:10122000119709F06CCE4A815B8120EE31E0DA0142
:101230000E945B1FDC01CB01F4E0B695A795979562
:101240008795FA95D1F720E030E0B901EAE94E9FA1
:10125000040E611D5E9F600D711D1124650F711DCF
:10126000860F971FA11DB11D893E43E09407A1057C
:10127000B10508F434C0885E9340A109B10942E089
:10128000B695A795979587954A95D1F747E0849F9E
:10129000080E211D949F200D311D1124290F311D91
:1012A0006091D50270E0860F971F820F931F4091C7
:1012B0008403509185036091860370918703292FE1
:1012C0003327420F531F611D711D409384035093B8
:1012D000850360938603709387038093D502789487
:1012E000C301DF91CF911F910F91FF90EF90DF909D
:1012F000CF90BF90AF909F908F907F906F900C9405
:101300009F1A6F927F928F929F92AF92BF92CF92CD
:10131000DF92EF92FF920F931F93CF93DF93EB0136
:101320000F963C010E94A91AF894E881F981509126
:1013300002015061409102014F7E40930201EA8414
:101340008F812E2D281B822F2F83DF84AA81BB81C2
:101350006D857C85FE846F5F7F5FF3949E81388509
:10136000B984AB84118120E0C32E022F322F31814A
:10137000112788943111380F08F43FEF8195889434
:1013800060FD130F1795889461FD130F17958894CE
:1013900062FD130F1795889463FD130F17958894BA
:1013A00064FD130F1795889465FD130F17958894A6
:1013B00066FD130F1795889467FD130F1795889492
:1013C000232F6111212F8E0D122F002C509302011B
:1013D000002C17FF4093020130812227889400C01F
:1013E00000C0409302013111390F00C05093020137
:1013F000002C16FF4093020108F43FEF919588946A
:1014000000C000C04093020170FD230F00C0509344
:101410000201002C15FF409302012795889471FD6D
:10142000230F00C000C0409302012795889400C09C
:1014300050930201002C14FF4093020172FD230F10
:101440002795889400C000C04093020173FD230FCC
:1014500000C050930201002C13FF40930201279516
:10146000889474FD230F00C000C0409302012795AB
:10147000889400C050930201002C12FF4093020197
:1014800075FD230F2795889400C000C0409302018A
:1014900076FD230F00C050930201002C11FF4093F2
:1014A00002012795889477FD230F00C000C0409368
:1014B00002012795889400C050930201002C10FF70
:1014C00040930201132F7111122F9B0D00C000C019
:1014D0004093020100C000C050930201002C17FF8E
:1014E0004093020132812227889400C000C04093BB
:1014F000020131113C0D00C050930201002C16FF77
:101500004093020108F43FEFED0DF11D00C000C053
:1015100040930201F0FC230F00C050930201002C05
:1015200015FF4093020127958894F1FC230F00C01A
:1015300000C0409302012795889400C05093020197
:10154000002C14FF40930201F2FC230F279588948E
:1015500000C000C040930201F3FC230F00C0509371
:101560000201002C13FF4093020127958894F4FC9C
:10157000230F00C000C0409302012795889400C04B
:1015800050930201002C12FF40930201F5FC230F3F
:101590002795889400C000C040930201F6FC230FF9
:1015A00000C050930201002C11FF409302012795C7
:1015B0008894F7FC230F00C000C0409302012795D8
:1015C000889400C050930201002C10FF4093020148
:1015D000132FF110122FC19400C000C040930201DC
:1015E000CA0C00C0002C50930201002C17FF40933E
:1015F000020131812227889400C000C0409302017B
:101600003111380F00C050930201002C16FF409397
:10161000020108F43FEF8195889400C000C0409318
:10162000020160FD230F00C050930201002C15FF42
:10163000409302012795889461FD230F00C000C0EC
:10164000409302012795889400C050930201002C1A
:1016500014FF4093020162FD230F2795889400C078
:1016600000C04093020163FD230F00C050930201AC
:10167000002C13FF409302012795889464FD230FEB
:1016800000C000C0409302012795889400C0509389
:101690000201002C12FF4093020165FD230F2795E4
:1016A000889400C000C04093020166FD230F00C073
:1016B00050930201002C11FF40930201279588945A
:1016C00067FD230F00C000C0409302012795889456
:1016D00000C050930201002C10FF40930201132F11
:1016E0006111122F8E0D00C000C0409302011197AE
:1016F00009F06CCE4A815B8120EE31E0DA010E9474
:101700005B1FDC01CB01F4E0B695A7959795879513
:10171000FA95D1F720E030E0B901EAE94E9F040ED6
:10172000611D5E9F600D711D1124650F711D860F77
:10173000971FA11DB11D893E43E09407A105B10586
:1017400008F434C0885E9340A109B10942E0B6951F
:10175000A795979587954A95D1F747E0849F080EFE
:10176000211D949F200D311D1124290F311D6091E1
:10177000D50270E0860F971F820F931F409184035C
:10178000509185036091860370918703292F332739
:10179000420F531F611D711D4093840350938503B5
:1017A00060938603709387038093D5027894C30176
:1017B000DF91CF911F910F91FF90EF90DF90CF902D
:1017C000BF90AF909F908F907F906F900C949F1AD6
:1017D0000F931F93CF93DF93CDB7DEB762970FB60A
:1017E000F894DEBF0FBECDBF8C01F901DC011C9661
:1017F0008C917A8369835C834B835E834D83908174
:101800009D8791819E8792819F87813029F4CE01A7
:1018100001960E94601A06C01C861B861A861986CD
:1018200018861F82188A1A8A198AD801ED91FC91AC
:101830000484F585E02DBE016F5F7F4FC8011995C7
:1018400062960FB6F894DEBF0FBECDBFDF91CF9189
:101850001F910F9108950F931F93CF93DF93CDB7EF
:10186000DEB762970FB6F894DEBF0FBECDBF8C0116
:10187000F901DC011C968C917A8369835C834B832C
:101880005E834D8390819D8791819E8792819F8702
:10189000813029F4CE0101960E94601A06C01C8690
:1018A0001B861A86198618861F8283E0888B1A8AFF
:1018B000198AD801ED91FC910484F585E02DBE01D3
:1018C0006F5F7F4FC801199562960FB6F894DEBF1F
:1018D0000FBECDBFDF91CF911F910F91089580E989
:1018E00091E008956C9A08956D9A08954F925F92D1
:1018F0006F927F928F92AF92BF92CF92DF92EF92D0
:101900000F931F93CF93DF93EB010F962C010E944F
:10191000A91AF894E881F9817EB170616EB16F7E89
:101920006EB9CA848F812C2D281B822F2F83BF84F0
:101930006A807B801D850C85DE841F5F0F5FD394DA
:101940009E813885A984EB844181D30120E0C32F97
:10195000522F322F3181442788943111380F08F4E7
:101960003FEF8195889410FD430F4795889411FDB2
:10197000430F4795889412FD430F4795889413FDB4
:10198000430F4795889414FD430F4795889415FDA0
:10199000430F4795889416FD430F4795889417FD8C
:1019A000430F47958894232F1111242F8C0D422F1C
:1019B000002C7EB900C047FF6EB930812227889481
:1019C00000C000C0002C6EB93111390F00C0002CCE
:1019D0007EB900C046FF6EB908F43FEF9195889438
:1019E00000C000C0002C6EB900FD230F00C0002C09
:1019F0007EB900C045FF6EB92795889401FD230F7D
:101A000000C000C0002C6EB92795889400C0002C3F
:101A10007EB900C044FF6EB902FD230F279588945C
:101A200000C000C0002C6EB903FD230F00C0002CC5
:101A30007EB900C043FF6EB92795889404FD230F3B
:101A400000C000C0002C6EB92795889400C0002CFF
:101A50007EB900C042FF6EB905FD230F279588941B
:101A600000C000C0002C6EB906FD230F00C0002C82
:101A70007EB900C041FF6EB92795889407FD230FFA
:101A800000C000C0002C6EB92795889400C0002CBF
:101A90007EB900C040FF6EB9432F0111422F9A0D4D
:101AA00000C000C0002C6EB900C000C0002C7EB980
:101AB00000C047FF6EB932812227889400C000C061
:101AC000002C6EB931113C0F00C0002C7EB900C053
:101AD00046FF6EB908F43FEFEB0DF11D00C000C0EA
:101AE000002C6EB9D0FC230F00C0002C7EB900C0C2
:101AF00045FF6EB927958894D1FC230F00C000C024
:101B0000002C6EB92795889400C0002C7EB900C0C7
:101B100044FF6EB9D2FC230F2795889400C000C003
:101B2000002C6EB9D3FC230F00C0002C7EB900C07E
:101B300043FF6EB927958894D4FC230F00C000C0E2
:101B4000002C6EB92795889400C0002C7EB900C087
:101B500042FF6EB9D5FC230F2795889400C000C0C2
:101B6000002C6EB9D6FC230F00C0002C7EB900C03B
:101B700041FF6EB927958894D7FC230F00C000C0A1
:101B8000002C6EB92795889400C0002C7EB900C047
:101B900040FF6EB9432FD110422FC19500C000C045
:101BA000002C6EB9CE0D00C000C07EB900C047FF4A
:101BB0006EB931812227889400C000C0002C6EB914
:101BC0003111380F00C0002C7EB900C046FF6EB93D
:101BD00008F43FEF8195889400C000C0002C6EB9D6
:101BE00010FD230F00C0002C7EB900C045FF6EB968
:101BF0002795889411FD230F00C000C0002C6EB9FA
:101C00002795889400C0002C7EB900C044FF6EB9AF
:101C100012FD230F2795889400C000C0002C6EB9D8
:101C200013FD230F00C0002C7EB900C043FF6EB926
:101C30002795889414FD230F00C000C0002C6EB9B6
:101C40002795889400C0002C7EB900C042FF6EB971
:101C500015FD230F2795889400C000C0002C6EB995
:101C600016FD230F00C0002C7EB900C041FF6EB9E5
:101C70002795889417FD230F00C000C0002C6EB973
:101C80002795889400C0002C7EB900C040FF6EB933
:101C9000432F1111422F8C0D00C000C0002C6EB9D3
:101CA000119709F086CE20EE31E0D3010E945B1F30
:101CB000DC01CB01F4E0B695A79597958795FA9549
:101CC000D1F720E030E0B901EAE96E9E060C611D13
:101CD0007E9E600D711D1124670D711D860F971F6B
:101CE000A11DB11D893E43E09407A105B10508F48B
:101CF00034C0885E9340A109B10942E0B695A7952A
:101D0000979587954A95D1F747E0849F080E211D46
:101D1000949F200D311D1124290F311D6091D50292
:101D200070E0860F971F820F931F4091840350919C
:101D300085036091860370918703292F3327420F13
:101D4000531F611D711D409384035093850360935D
:101D50008603709387038093D5027894C201DF9144
:101D6000CF911F910F91EF90DF90CF90BF90AF90E8
:101D70008F907F906F905F904F900C949F1A4F922E
:101D80005F926F927F928F92AF92BF92CF92DF92CB
:101D9000EF920F931F93CF93DF93EB010F962C01DC
:101DA0000E94A91AF894E881F9817EB170626EB13F
:101DB0006F7D6EB9CA848F812C2D281B822F2F83B3
:101DC000BF846A807B801D850C85DE841F5F0F5F6A
:101DD000D3949E813885A984EB844181D30120E08E
:101DE000C32F522F322F3181442788943111380F5D
:101DF00008F43FEF8195889410FD430F4795889430
:101E000011FD430F4795889412FD430F4795889421
:101E100013FD430F4795889414FD430F479588940D
:101E200015FD430F4795889416FD430F47958894F9
:101E300017FD430F47958894232F1111242F8C0DE4
:101E4000422F002C7EB900C047FF6EB93081222797
:101E5000889400C000C0002C6EB93111390F00C049
:101E6000002C7EB900C046FF6EB908F43FEF919593
:101E7000889400C000C0002C6EB900FD230F00C084
:101E8000002C7EB900C045FF6EB92795889401FDEE
:101E9000230F00C000C0002C6EB92795889400C0A5
:101EA000002C7EB900C044FF6EB902FD230F2795B8
:101EB000889400C000C0002C6EB903FD230F00C041
:101EC000002C7EB900C043FF6EB92795889404FDAD
:101ED000230F00C000C0002C6EB92795889400C065
:101EE000002C7EB900C042FF6EB905FD230F279577
:101EF000889400C000C0002C6EB906FD230F00C0FE
:101F0000002C7EB900C041FF6EB92795889407FD6B
:101F1000230F00C000C0002C6EB92795889400C024
:101F2000002C7EB900C040FF6EB9432F0111422F33
:101F30009A0D00C000C0002C6EB900C000C0002C7B
:101F40007EB900C047FF6EB932812227889400C055
:101F500000C0002C6EB931113C0F00C0002C7EB9BE
:101F600000C046FF6EB908F43FEFEB0DF11D00C055
:101F700000C0002C6EB9D0FC230F00C0002C7EB92D
:101F800000C045FF6EB927958894D1FC230F00C08F
:101F900000C0002C6EB92795889400C0002C7EB933
:101FA00000C044FF6EB9D2FC230F2795889400C06F
:101FB00000C0002C6EB9D3FC230F00C0002C7EB9EA
:101FC00000C043FF6EB927958894D4FC230F00C04E
:101FD00000C0002C6EB92795889400C0002C7EB9F3
:101FE00000C042FF6EB9D5FC230F2795889400C02E
:101FF00000C0002C6EB9D6FC230F00C0002C7EB9A7
:1020000000C041FF6EB927958894D7FC230F00C00C
:1020100000C0002C6EB92795889400C0002C7EB9B2
:1020200000C040FF6EB9432FD110422FC19500C0B0
:1020300000C0002C6EB9CE0D00C000C07EB900C03B
:1020400047FF6EB931812227889400C000C0002C60
:102050006EB93111380F00C0002C7EB900C046FFA8
:102060006EB908F43FEF8195889400C000C0002C41
:102070006EB910FD230F00C0002C7EB900C045FFD3
:102080006EB92795889411FD230F00C000C0002C65
:102090006EB92795889400C0002C7EB900C044FF1B
:1020A0006EB912FD230F2795889400C000C0002C44
:1020B0006EB913FD230F00C0002C7EB900C043FF92
:1020C0006EB92795889414FD230F00C000C0002C22
:1020D0006EB92795889400C0002C7EB900C042FFDD
:1020E0006EB915FD230F2795889400C000C0002C01
:1020F0006EB916FD230F00C0002C7EB900C041FF51
:102100006EB92795889417FD230F00C000C0002CDE
:102110006EB92795889400C0002C7EB900C040FF9E
:102120006EB9432F1111422F8C0D00C000C0002C3E
:102130006EB9119709F086CE20EE31E0D3010E94EE
:102140005B1FDC01CB01F4E0B695A79597958795C9
:10215000FA95D1F720E030E0B901EAE96E9E060C6D
:10216000611D7E9E600D711D1124670D711D860F0E
:10217000971FA11DB11D893E43E09407A105B1053C
:1021800008F434C0885E9340A109B10942E0B695D5
:10219000A795979587954A95D1F747E0849F080EB4
:1021A000211D949F200D311D1124290F311D609197
:1021B000D50270E0860F971F820F931F4091840312
:1021C000509185036091860370918703292F3327EF
:1021D000420F531F611D711D40938403509385036B
:1021E00060938603709387038093D5027894C2012D
:1021F000DF91CF911F910F91EF90DF90CF90BF9023
:10220000AF908F907F906F905F904F900C949F1A3B
:102210009D9A08956B9A08954F925F926F927F9264
:102220008F92AF92BF92CF92DF92EF920F931F9354
:10223000CF93DF93EB010F962C010E94A91AF8941B
:10224000E881F98174B3706264B36F7D64BBCA8442
:102250008F812C2D281B822F2F83BF846A807B8047
:102260001D850C85DE841F5F0F5FD3949E813885AA
:10227000A984EB844181D30120E0C32F522F322F58
:102280003181442788943111380F08F43FEF81954C
:10229000889410FD430F4795889411FD430F47958F
:1022A000889412FD430F4795889413FD430F47957B
:1022B000889414FD430F4795889415FD430F479567
:1022C000889416FD430F4795889417FD430F479553
:1022D0008894232F1111242F8C0D422F002C74BBB6
:1022E00000C047FF64BB30812227889400C000C033
:1022F000002C64BB3111390F00C0002C74BB00C02E
:1023000046FF64BB08F43FEF9195889400C000C07D
:10231000002C64BB00FD230F00C0002C74BB00C068
:1023200045FF64BB2795889401FD230F00C000C0C2
:10233000002C64BB2795889400C0002C74BB00C09F
:1023400044FF64BB02FD230F2795889400C000C0A2
:10235000002C64BB03FD230F00C0002C74BB00C025
:1023600043FF64BB2795889404FD230F00C000C081
:10237000002C64BB2795889400C0002C74BB00C05F
:1023800042FF64BB05FD230F2795889400C000C061
:10239000002C64BB06FD230F00C0002C74BB00C0E2
:1023A00041FF64BB2795889407FD230F00C000C040
:1023B000002C64BB2795889400C0002C74BB00C01F
:1023C00040FF64BB432F0111422F9A0D00C000C093
:1023D000002C64BB00C000C0002C74BB00C047FFD1
:1023E00064BB32812227889400C000C0002C64BBEB
:1023F00031113C0F00C0002C74BB00C046FF64BB11
:1024000008F43FEFEB0DF11D00C000C0002C64BBD1
:10241000D0FC230F00C0002C74BB00C045FF64BB80
:1024200027958894D1FC230F00C000C0002C64BB0A
:102430002795889400C0002C74BB00C044FF64BB87
:10244000D2FC230F2795889400C000C0002C64BBE9
:10245000D3FC230F00C0002C74BB00C043FF64BB3F
:1024600027958894D4FC230F00C000C0002C64BBC7
:102470002795889400C0002C74BB00C042FF64BB49
:10248000D5FC230F2795889400C000C0002C64BBA6
:10249000D6FC230F00C0002C74BB00C041FF64BBFE
:1024A00027958894D7FC230F00C000C0002C64BB84
:1024B0002795889400C0002C74BB00C040FF64BB0B
:1024C000432FD110422FC19500C000C0002C64BB27
:1024D000CE0D00C000C074BB00C047FF64BB31819B
:1024E0002227889400C000C0002C64BB3111380F33
:1024F00000C0002C74BB00C046FF64BB08F43FEF73
:102500008195889400C000C0002C64BB10FD230F8F
:1025100000C0002C74BB00C045FF64BB27958894A5
:1025200011FD230F00C000C0002C64BB27958894C8
:1025300000C0002C74BB00C044FF64BB12FD230F1D
:102540002795889400C000C0002C64BB13FD230FA6
:1025500000C0002C74BB00C043FF64BB2795889467
:1025600014FD230F00C000C0002C64BB2795889485
:1025700000C0002C74BB00C042FF64BB15FD230FDC
:102580002795889400C000C0002C64BB16FD230F63
:1025900000C0002C74BB00C041FF64BB2795889429
:1025A00017FD230F00C000C0002C64BB2795889442
:1025B00000C0002C74BB00C040FF64BB432F11114E
:1025C000422F8C0D00C000C0002C64BB119709F095
:1025D00086CE20EE31E0D3010E945B1FDC01CB01EF
:1025E000F4E0B695A79597958795FA95D1F720E0F1
:1025F00030E0B901EAE96E9E060C611D7E9E600D19
:10260000711D1124670D711D860F971FA11DB11D2E
:10261000893E43E09407A105B10508F434C0885E03
:102620009340A109B10942E0B695A7959795879582
:102630004A95D1F747E0849F080E211D949F200DF5
:10264000311D1124290F311D6091D50270E0860FD4
:10265000971F820F931F40918403509185036091CF
:10266000860370918703292F3327420F531F611D63
:10267000711D409384035093850360938603709388
:1026800087038093D5027894C201DF91CF911F9187
:102690000F91EF90DF90CF90BF90AF908F907F9091
:1026A0006F905F904F900C949F1A4F925F926F9231
:1026B0007F928F92AF92BF92CF92DF92EF920F9361
:1026C0001F93CF93DF93EB010F962C010E94A91A61
:1026D000F894E881F9817EB178606EB1677F6EB958
:1026E000CA848F812C2D281B822F2F83BF846A8060
:1026F0007B801D850C85DE841F5F0F5FD3949E81D8
:102700003885A984EB844181D30120E0C32F522F67
:10271000322F3181442788943111380F08F43FEF6C
:102720008195889410FD430F4795889411FD430FC0
:102730004795889412FD430F4795889413FD430FE6
:102740004795889414FD430F4795889415FD430FD2
:102750004795889416FD430F4795889417FD430FBE
:1027600047958894232F1111242F8C0D422F002C74
:102770007EB900C047FF6EB930812227889400C01F
:1027800000C0002C6EB93111390F00C0002C7EB989
:1027900000C046FF6EB908F43FEF9195889400C0E1
:1027A00000C0002C6EB900FD230F00C0002C7EB9C4
:1027B00000C045FF6EB92795889401FD230F00C026
:1027C00000C0002C6EB92795889400C0002C7EB9FB
:1027D00000C044FF6EB902FD230F2795889400C006
:1027E00000C0002C6EB903FD230F00C0002C7EB981
:1027F00000C043FF6EB92795889404FD230F00C0E5
:1028000000C0002C6EB92795889400C0002C7EB9BA
:1028100000C042FF6EB905FD230F2795889400C0C4
:1028200000C0002C6EB906FD230F00C0002C7EB93D
:1028300000C041FF6EB92795889407FD230F00C0A3
:1028400000C0002C6EB92795889400C0002C7EB97A
:1028500000C040FF6EB9432F0111422F9A0D00C0F6
:1028600000C0002C6EB900C000C0002C7EB900C0B2
:1028700047FF6EB932812227889400C000C0002C27
:102880006EB931113C0F00C0002C7EB900C046FF6C
:102890006EB908F43FEFEB0DF11D00C000C0002C35
:1028A0006EB9D0FC230F00C0002C7EB900C045FFDC
:1028B0006EB927958894D1FC230F00C000C0002C6E
:1028C0006EB92795889400C0002C7EB900C044FFE3
:1028D0006EB9D2FC230F2795889400C000C0002C4D
:1028E0006EB9D3FC230F00C0002C7EB900C043FF9B
:1028F0006EB927958894D4FC230F00C000C0002C2B
:102900006EB92795889400C0002C7EB900C042FFA4
:102910006EB9D5FC230F2795889400C000C0002C09
:102920006EB9D6FC230F00C0002C7EB900C041FF59
:102930006EB927958894D7FC230F00C000C0002CE7
:102940006EB92795889400C0002C7EB900C040FF66
:102950006EB9432FD110422FC19500C000C0002C8A
:102960006EB9CE0D00C000C07EB900C047FF6EB981
:1029700031812227889400C000C0002C6EB931112B
:10298000380F00C0002C7EB900C046FF6EB908F4B5
:102990003FEF8195889400C000C0002C6EB910FDF7
:1029A000230F00C0002C7EB900C045FF6EB92795EB
:1029B000889411FD230F00C000C0002C6EB927952C
:1029C000889400C0002C7EB900C044FF6EB912FD8F
:1029D000230F2795889400C000C0002C6EB913FD0A
:1029E000230F00C0002C7EB900C043FF6EB92795AD
:1029F000889414FD230F00C000C0002C6EB92795E9
:102A0000889400C0002C7EB900C042FF6EB915FD4D
:102A1000230F2795889400C000C0002C6EB916FDC6
:102A2000230F00C0002C7EB900C041FF6EB927956E
:102A3000889417FD230F00C000C0002C6EB92795A5
:102A4000889400C0002C7EB900C040FF6EB9432FAF
:102A50001111422F8C0D00C000C0002C6EB91197CF
:102A600009F086CE20EE31E0D3010E945B1FDC012D
:102A7000CB01F4E0B695A79597958795FA95D1F790
:102A800020E030E0B901EAE96E9E060C611D7E9EF1
:102A9000600D711D1124670D711D860F971FA11DFB
:102AA000B11D893E43E09407A105B10508F434C087
:102AB000885E9340A109B10942E0B695A795979524
:102AC00087954A95D1F747E0849F080E211D949F72
:102AD000200D311D1124290F311D6091D50270E0A8
:102AE000860F971F820F931F409184035091850397
:102AF0006091860370918703292F3327420F531F5C
:102B0000611D711D40938403509385036093860378
:102B1000709387038093D5027894C201DF91CF919F
:102B20001F910F91EF90DF90CF90BF90AF908F905B
:102B30007F906F905F904F900C949F1ACF92DF928E
:102B4000EF92FF920F931F93CF93DF936C017A0163
:102B50008B01C0E0D0E0CE15DF0581F0D8016D918A
:102B60008D01D601ED91FC910190F081E02DC6011F
:102B70001995892B11F02196EECF7E01C701DF91C7
:102B8000CF911F910F91FF90EF90DF90CF9008951C
:102B9000089580E090E008958AE893E00E948A1901
:102BA00021E0892B09F420E0822F08950E94761FEE
:102BB0001F920F920FB60F9211240BB60F922F9304
:102BC0003F934F935F936F937F938F939F93AF93B5
:102BD000BF93EF93FF938AE893E00E94CF19FF9190
:102BE000EF91BF91AF919F918F917F916F915F9185
:102BF0004F913F912F910F900BBE0F900FBE0F90F2
:102C00001F9018951F920F920FB60F9211240BB6BA
:102C10000F922F938F939F93EF93FF93E0919A03DB
:102C2000F0919B038081E091A003F091A10382FDCC
:102C300012C090818091A3038F5F8F732091A403B2
:102C4000821751F0E091A303F0E0E657FC4F958F17
:102C50008093A30301C08081FF91EF919F918F9199
:102C60002F910F900BBE0F900FBE0F901F901895D5
:102C70004F925F926F927F929F92AF92BF92CF924C
:102C8000DF92EF92FF920F931F93CF93DF9300D0C9
:102C9000CDB7DEB7FC01A081B1811296CD90DC905A
:102CA000139719821A821B8261111DC045855685B2
:102CB000628173819E012F5F3F4FCF01F60119950D
:102CC0000F900F900F90DF91CF911F910F91FF9078
:102CD000EF90DF90CF90BF90AF909F907F906F90DC
:102CE0005F904F9008958C010A5F1F4FCE010196AF
:102CF0007C015F0199E0A90EB11C462E512C612C7C
:102D0000712CD8012D918D01222311F112969C90E6
:102D10009920F1F0822F90E0A0E0B0E09C01AD019D
:102D20002F5F3F4F4F4F5F4FC301B2010E94EE1E16
:102D30009B01AC01892D90E0A0E0B0E0BC01CD0189
:102D40006F5F7F4F8F4F9F4F0E94EE1ED7018C9376
:102D5000BFEFEB1AFB0A0A151B0599F6A7CF3091B6
:102D6000880320918903E32FF22F009739F0019710
:102D7000309741F00480F581E02DF7CF309711F0C6
:102D80003E2F2F2F832F922F0895EF92FF920F93B4
:102D90001F93CF93DF93EC017B018A01E881F981D6
:102DA0000480F581E02D1995FB82EA821E870D874C
:102DB000E881F9810284F385E02DCE011995009711
:102DC00001F19C0140E050E060E472E48FE090E0AB
:102DD0000E94341F8091310490913204A0913304F9
:102DE000B091340482179307A407B50710F4DA01F1
:102DF000C9018093310490933204A0933304B093BB
:102E00003404CE01DF91CF911F910F91FF90EF908D
:102E10000895CF93DF93DB01EC0128816D817E81E2
:102E2000D3E02D0290011124EC01EB81FC816E179F
:102E30007F0769F04C91408311964C911197418323
:102E400012964C9112974283E20FF31FF0CFDF915D
:102E5000CF910895009769F0FC0101900020E9F7F7
:102E60003197AF01481B590BBC018AE893E00C94E1
:102E70009E1580E090E008958F929F92AF92BF924E
:102E80000F931F93CF93DF93CDB7DEB7A1970FB604
:102E9000F894DEBF0FBECDBF19A2423008F44AE05D
:102EA0008E010F5D1F4F842E912CA12CB12CA501FA
:102EB00094010E94121FE62FB901CA0101501109A5
:102EC000EA3014F4E05D01C0E95CD801EC93232BF7
:102ED000242B252B61F7C8010E942A17A1960FB653
:102EE000F894DEBF0FBECDBFDF91CF911F910F9140
:102EF000BF90AF909F908F900895CF93DF93682FEE
:102F000070E080E090E04AE00E943C17EC018BEB1F
:102F100092E00E942A178C0F9D1FDF91CF91089598
:102F2000CF93DF930E942A17EC018BEB92E00E9473
:102F30002A178C0F9D1FDF91CF9108953FB7F8940A
:102F400080913C0490913D04A0913E04B0913F04D7
:102F500026B5A89B05C02F3F19F00196A11DB11DF4
:102F60003FBFBA2FA92F982F8827820F911DA11D2F
:102F7000B11DBC01CD0142E0660F771F881F991F6C
:102F80004A95D1F708952FB7F89460918403709112
:102F9000850380918603909187032FBF0895CF9278
:102FA000DF92EF92FF920F931F93CF93DF93182F2F
:102FB0008091310490913204A0913304B091340493
:102FC000892B8A2B8B2BE9F00E949E17C090460418
:102FD000D0904704E0904804F0904904DC01CB0114
:102FE0008C199D09AE09BF09C0903104D0903204FC
:102FF000E0903304F09034048C159D05AE05BF05B8
:10300000B8F20E949E176093460470934704809321
:10301000480490934904E0913904F0913A043097C0
:1030200059F0409135045091360460913704709105
:103030003804812F1995182FC0918803D0918903E6
:10304000209791F0FC8480912F0490913004843675
:10305000910508F41C86612FCE010E943816FC866B
:103060000C80DD81C02DECCF80914404909145040B
:10307000EC012196D0934504C093440449979CF1F8
:103080000E94C3178B019C0188EE93E0C89FB0019A
:10309000C99F700DD89F700D1124072E000C880B4E
:1030A000990BC0904004D0904104E0904204F0900D
:1030B0004304A90198012C193D094E095F090E949A
:1030C000121F3093300420932F0410924504109265
:1030D00044040E94C317609340047093410480939A
:1030E000420490934304DF91CF911F910F91FF9081
:1030F000EF90DF90CF9008950F931F930E94C31716
:103100006093920370939303809394039093950339
:103110008AE893E00E947C1997FF1FC00E94C317A2
:1031200000919203109193032091940330919503A1
:10313000DC01CB01801B910BA20BB30B00918E0322
:1031400010918F0320919003309191038017910784
:10315000A207B307E8F28FEF9FEF1F910F91089539
:10316000CF92DF92EF92FF92CF930E947C18FC01E6
:1031700097FD0BC08D32910561F0C0970A9748F01A
:103180008AE893E00E946819F0CF60E070E0CB011C
:1031900040C0C12CD12C7601C0E0E130F10501F135
:1031A000ED32F105E1F0CF01C0970A97C8F4AAE02B
:1031B000B0E0A70196010E94D41E6F01FF0FEE0838
:1031C000FF08DC01CB018C0D9D1DAE1DBF1D6C01E8
:1031D0007D0120E3C21AD108E108F10801C0C1E075
:1031E0008AE893E00E9468190E947C18FC01C0974D
:1031F0000A9798F2E130F10581F2CC2341F066277D
:103200007727CB016C197D098E099F0902C0C70180
:10321000B601CF91FF90EF90DF90CF9008951F926D
:103220000F920FB60F9211242F933F938F939F937A
:10323000AF93BF938091840390918503A0918603FF
:10324000B091870330913B0423E0230F2D3720F406
:103250000196A11DB11D05C026E8230F0296A11DF0
:10326000B11D20933B048093840390938503A09326
:103270008603B093870380913C0490913D04A09114
:103280003E04B0913F040196A11DB11D80933C0402
:1032900090933D04A0933E04B0933F04BF91AF913F
:1032A0009F918F913F912F910F900FBE0F901F9084
:1032B0001895FC01538D448D252F30E0842F90E02C
:1032C000821B930B541710F0CF9608950197089521
:1032D000FC01918D828D981761F0828DDF01A80F1E
:1032E000B11D5D968C91928D9F5F9F73928F90E040
:1032F00008958FEF9FEF0895FC01918D828D9817AF
:1033000031F0828DE80FF11D858D90E008958FEFEB
:103310009FEF0895FC01918D228D892F90E0805CB4
:103320009F4F821B91098F739927089580E090E049
:10333000892B21F00E94CC15811125C080E090E0FE
:10334000892B41F080E090E0892B21F00E94000061
:1033500081111CC080E090E0892B41F080E090E07A
:10336000892B21F00E940000811113C080E090E0C1
:10337000892BA1F080E090E0892B81F00E94000071
:1033800081110AC008950E940000D8CF0E94000059
:10339000E1CF0E940000EACF0C9400000895FC01E8
:1033A000848DDF01A80FB11DA35ABF4F2C91848DCE
:1033B00090E001968F739927848FA689B7892C9303
:1033C000A089B1898C91837080648C93938D848D56
:1033D000981306C00288F389E02D80818F7D808359
:1033E0000895EF92FF920F931F93CF93DF93EC0119
:1033F00081E0888F9B8D8C8D981305C0E889F989B1
:10340000808185FD26C0F62E0B8D10E00F5F1F4FCB
:103410000F731127E02E8C8DE8120CC00FB607FC3D
:10342000FACFE889F989808185FFF5CFCE010E9426
:10343000CF19F1CF8B8DFE01E80FF11DE35AFF4F3D
:10344000F0829FB7F8940B8FEA89FB8980818062B4
:103450000AC09FB7F894EE89FF896083E889F989EB
:1034600080818370806480839FBF81E090E0DF91E2
:10347000CF911F910F91FF90EF900895CF93DF931D
:10348000EC01888D8823C9F0EA89FB89808185FD5C
:1034900005C0A889B9898C9186FD0FC00FB607FCBD
:1034A000F5CF808185FFF2CFA889B9898C9185FFFE
:1034B000EDCFCE010E94CF19E7CFDF91CF910895D4
:1034C0000F931F93CF93DF9320911A072F5F322F13
:1034D000377030931A0720FF02C020E801C020E0B7
:1034E00031FD2064347009F02062205FFC01EC01A2
:1034F000239600E011E06485662331F070E0C80196
:103500000E94FE1E6F5F01C060E06187322F369F10
:10351000030E30E0311D1124311102C0168202C0A9
:1035200031503683662311F0615061873196CE1792
:10353000DF0709F7DF91CF911F910F910895CF9386
:10354000DF93EC010E949E1779836883DF91CF910E
:103550000895CF93DF93EC010E949E172881398153
:10356000621B730B6A307105B8F3DF91CF91089538
:10357000CF93DF9300D000D0CDB7DEB7789484B579
:10358000826084BD84B5816084BD85B5826085BD5F
:1035900085B5816085BD80916E00816080936E00ED
:1035A00010928100809181008260809381008091DF
:1035B0008100816080938100809180008160809390
:1035C00080008091B10084608093B1008091B00050
:1035D00081608093B000809191008260809391001F
:1035E0008091910081608093910080919000816032
:1035F000809390008091A10082608093A1008091CF
:10360000A10081608093A1008091A00081608093DF
:10361000A00080912101826080932101809121018D
:10362000816080932101809120018160809320013D
:1036300080917A00846080937A0080917A00826021
:1036400080937A0080917A00816080937A008091E3
:103650007A00806880937A001092C100E0919A030A
:10366000F0919B0382E08083E0919A03F0919B03A9
:103670001082E0919603F09197031082E0919803F5
:10368000F091990380E180831092A203E0919E0360
:10369000F0919F0386E08083E0919C03F0919D036D
:1036A000808180618083E0919C03F0919D03808103
:1036B00088608083E0919C03F0919D038081806805
:1036C0008083E0919C03F0919D0380818F7D8083B6
:1036D0008CED95E0A0E0B0E080938E0390938F0393
:1036E000A0939003B09391030E949E174B015C013D
:1036F000F8EECF2EF3E0DF2EE12CF12C0E949E1786
:10370000DC01CB0188199909AA09BB09883E9340BD
:10371000A105B10598F321E0C21AD108E108F1082A
:1037200088EE880E83E0981EA11CB11CC114D10440
:10373000E104F10419F700912A0410912B048091FF
:10374000EB02811111C08AED92E00E9437011092C4
:10375000EA021092E90282E292E09093DB02809307
:10376000DA0281E08093EB024EEE50E0B8018AED80
:1037700092E00E94C51600912A0410912B048091BA
:103780000403811111C083EF92E00E94370110926F
:1037900003031092020384E392E09093F402809377
:1037A000F30281E0809304034EEE50E0B80183EF12
:1037B00092E00E94C51600912A0410912B0480917A
:1037C0001D03811111C08CE093E00E94370110921B
:1037D0001C0310921B0386E492E090930D038093E8
:1037E0000C0381E080931D0348EE50E0B8018CE0AB
:1037F00093E00E94C51600912A0410912B04809139
:103800003603811111C085E293E00E9437011092C6
:1038100035031092340388E592E090932603809359
:10382000250381E0809336034CEE50E0B80185E239
:1038300093E00E94C51600912A0410912B048091F8
:103840004F03811111C08EE393E00E943701109263
:103850004E0310924D038AE692E090933F038093CB
:103860003E0381E080934F034DEE50E0B8018EE3BC
:1038700093E00E94C51600912A0410912B048091B8
:103880006803811111C087E593E00E94370110920F
:103890006703109266038CE792E09093580380933D
:1038A000570381E08093680348EE50E0B80187E554
:1038B00093E00E94C51680EE92E1909305028093FA
:1038C000040280917B00877F80937B0082E4809359
:1038D0007C0080917A00806480937A0080917A00E5
:1038E00086FDFCCF809178002091790090E0922BAA
:1038F0002091040230910502820F931F90930502DC
:103900008093040283EA92E00E94901782E0809301
:10391000D802C12CD12C7601E0EF8E2E912CA12C57
:10392000B12CC701B601A50194010E94341F122FCA
:1039300080E4820F0E946401812F0E9464018FEF56
:10394000D81AE80AF80AC11420EFD206E104F104FB
:1039500041F761E082E00E94D40575E6E72EF12C84
:1039600005E018E0CC24C39464E6B62EDD24DA9496
:103970008AE893E00E948A19181619060CF001C112
:103980008AE893E00E946819809372038A3071F08C
:1039900088EB92E00E942A17609172038AE893E014
:1039A0000E94F11989EB92E00E942A17E0917203BC
:1039B0008E2F90E0FC01E156F109E731F105C0F6E8
:1039C0008827EE58FF4F8F4F0C94531F1092D80248
:1039D0000E94B0186F3F710519F014F06FEF70E09E
:1039E00077FF02C060E070E0709371036093700332
:1039F000072E000C880B990B4AE00E943C178BEBBA
:103A000092E00E942A17809170038C83DD82DE820F
:103A1000BE016F5F7F4FCE0104960E948601AE010A
:103A20004F5F5F4F60EF70E080912A0490912B040C
:103A30000E94BF059DCF0E94B018862F609303029D
:103A40000E947D178091030280932E0491CF89EB11
:103A500092E00E9490171092D80261E080E05AC074
:103A60000E94B018709371036093700377FD08C0D3
:103A70006F3F710519F014F06FEF70E0862F01C0F1
:103A800080E08093D9027AC00E94B01870937103CD
:103A9000609370032091D802672B39F0822F90E059
:103AA0000196B7010E94FE1E04C08FEF820F8F3F68
:103AB00019F08093D8022BC0B092D80228C0809110
:103AC00073038C258093730389EB92E00E94901717
:103AD0004FCF0E94B018709371036093700377FD0D
:103AE00008C06F3F710519F014F06FEF70E0862F7A
:103AF00001C080E08093D70241C00E94B018862F99
:103B0000653608F084E68093D8020E947D1761E054
:103B10008091D8020E94D4052BCF89EB92E00E94BD
:103B2000901781E09091D602911180E08093D602A7
:103B30001FCF0E94B018862F633000F182E01EC0B4
:103B40000E94B018709371036093700377FD08C0F2
:103B50006F3F710519F014F06FEF70E0862F0EC003
:103B600080E00CC06091D80282E090E00E94C61E06
:103B70008EEB92E00E942A178091D8020E947D1756
:103B8000F7CE80917C0381111AC08090D902912CCC
:103B9000A12CB12C0E94C31760937403709375031A
:103BA00080937603909377038092780390927903C1
:103BB000A0927A03B0927B0381E080937C030E9401
:103BC000C3178090740390907503A0907603B09013
:103BD0007703DC01CB0188199909AA09BB098090F8
:103BE000780390907903A0907A03B0907B038815B6
:103BF0009905AA05BB05E0F00E94C3176093740302
:103C00007093750380937603909377038091D90224
:103C100090E0A0E0B0E08093780390937903A093C4
:103C20007A03B0937B0360E08091D8020E94D405B0
:103C300080917303882309F452C0209104023091CB
:103C40000502209FC001219F900D309F900D1124EF
:103C5000875E994C292F280F2A3028F0909305026F
:103C6000809304023CC0809F9001819F300D909F03
:103C7000300D1124275E394C309305022093040245
:103C8000230F8FEE289F90011124232F332780913B
:103C90002704E0912A04F0912B0487FF09C04DEF1F
:103CA0004203C001439F900D1124E80FF91F07C084
:103CB000C901880F991F280F391FE20FF31F3FEF2B
:103CC0002081230F08F42FEF20832181230F08F494
:103CD0002FEF21832281230F08F42FEF228380917D
:103CE000D802863020F080912E040E94CF170E94C7
:103CF000961938CEEAE8F3E01382128288EE93E058
:103D0000A0E0B0E084839583A683B7838EE892E039
:103D10009183808385EC90E09587848784EC90E0A4
:103D20009787868780EC90E0918B808B81EC90E088
:103D3000938B828B82EC90E0958B848B86EC90E069
:103D4000978B868B118E128E138E148EE7E2F4E021
:103D500081E0808380EF90E0928381838AE494E025
:103D6000948383838AE197E096838583EEE2F4E08F
:103D70008FEF808312821182148613868FEF9FEF5C
:103D8000DC0187839087A187B2870895262FF99950
:103D9000FECF1FBA92BD81BD20BD0FB6F894FA9A2E
:103DA000F99A0FBE019608950E94DF1EA59F900DFF
:103DB000B49F900DA49F800D911D11240895A29F82
:103DC000B001B39FC001A39F700D811D1124911DEF
:103DD000B29F700D811D1124911D0895DB018F93F9
:103DE0009F930E94D41EBF91AF91A29F800D911D01
:103DF000A39F900DB29F900D1124089597FB072E5D
:103E000016F4009407D077FD09D00E94621F07FCCA
:103E100005D03EF4909581959F4F089570956195DA
:103E20007F4F0895A1E21A2EAA1BBB1BFD010DC0F6
:103E3000AA1FBB1FEE1FFF1FA217B307E407F5075A
:103E400020F0A21BB30BE40BF50B661F771F881F36
:103E5000991F1A9469F760957095809590959B01CC
:103E6000AC01BD01CF010895052E97FB1EF400940F
:103E70000E944B1F57FD07D00E94121F07FC03D062
:103E80004EF40C944B1F50954095309521953F4F23
:103E90004F4F5F4F089590958095709561957F4F36
:103EA0008F4F9F4F0895EE0FFF1F881F8BBF079006
:103EB000F691E02D19940E94DF1EB7FF0895821B32
:103EC000930B0895AA1BBB1B51E107C0AA1FBB1F80
:103ED000A617B70710F0A61BB70B881F991F5A9596
:103EE000A9F780959095BC01CD01089581E090E0FF
:0A3EF000F8940C947B1FF894FFCFA8
:103EFA00FF0101FF3905003131295A1B750A0000FB
:103F0A000000D615D615D6150D0130013401000072
:103F1A000000E80B2B0C720C0D0130016F0C760CB3
:103F2A0000000000E80B2B0C740C0D0130016F0C23
:103F3A00BF0E00000000E80B2B0C08110D01300128
:103F4A006F0C0C1100000000E80B2B0C0A110D017C
:103F5A0030016F0C551300000000E80B2B0C0E0704
:103F6A000D0130016F0C1A0700000000E80B2B0C42
:103F7A0014070D0130016F0C810900000000F119CE
:103F8A009E1559193E1A8A1968197C194D6F64656C
:103F9A003A20002D2D2D534554555020434F4D5056
:103FAA004C4554452D2D2D002320000D0A00577233
:103FBA006974696E67206B6579626F6172643A2011
:023FCA000000F5
:00000001FF
